{
  "_format": "hh-sol-artifact-1",
  "contractName": "XenBurner",
  "sourceName": "contracts/XenBurner.sol",
  "abi": [
    {
      "inputs": [
        {
          "internalType": "address",
          "name": "_xen",
          "type": "address"
        },
        {
          "internalType": "address",
          "name": "_forge",
          "type": "address"
        },
        {
          "internalType": "address",
          "name": "_owner",
          "type": "address"
        }
      ],
      "stateMutability": "nonpayable",
      "type": "constructor"
    },
    {
      "inputs": [],
      "name": "Fail",
      "type": "error"
    },
    {
      "inputs": [],
      "name": "InsuffFee",
      "type": "error"
    },
    {
      "inputs": [],
      "name": "NoBatch",
      "type": "error"
    },
    {
      "inputs": [
        {
          "internalType": "address",
          "name": "owner",
          "type": "address"
        }
      ],
      "name": "OwnableInvalidOwner",
      "type": "error"
    },
    {
      "inputs": [
        {
          "internalType": "address",
          "name": "account",
          "type": "address"
        }
      ],
      "name": "OwnableUnauthorizedAccount",
      "type": "error"
    },
    {
      "inputs": [],
      "name": "ReentrancyGuardReentrantCall",
      "type": "error"
    },
    {
      "inputs": [
        {
          "internalType": "address",
          "name": "token",
          "type": "address"
        }
      ],
      "name": "SafeERC20FailedOperation",
      "type": "error"
    },
    {
      "anonymous": false,
      "inputs": [
        {
          "indexed": true,
          "internalType": "address",
          "name": "previousOwner",
          "type": "address"
        },
        {
          "indexed": true,
          "internalType": "address",
          "name": "newOwner",
          "type": "address"
        }
      ],
      "name": "OwnershipTransferred",
      "type": "event"
    },
    {
      "anonymous": false,
      "inputs": [
        {
          "indexed": true,
          "internalType": "address",
          "name": "u",
          "type": "address"
        },
        {
          "indexed": false,
          "internalType": "uint256",
          "name": "batch",
          "type": "uint256"
        },
        {
          "indexed": false,
          "internalType": "uint256",
          "name": "xen",
          "type": "uint256"
        },
        {
          "indexed": false,
          "internalType": "uint256",
          "name": "tix",
          "type": "uint256"
        },
        {
          "indexed": false,
          "internalType": "uint256",
          "name": "fee",
          "type": "uint256"
        }
      ],
      "name": "XenBurn",
      "type": "event"
    },
    {
      "inputs": [],
      "name": "BASE_FEE",
      "outputs": [
        {
          "internalType": "uint256",
          "name": "",
          "type": "uint256"
        }
      ],
      "stateMutability": "view",
      "type": "function"
    },
    {
      "inputs": [],
      "name": "BATCH_TIX",
      "outputs": [
        {
          "internalType": "uint256",
          "name": "",
          "type": "uint256"
        }
      ],
      "stateMutability": "view",
      "type": "function"
    },
    {
      "inputs": [],
      "name": "FORGE",
      "outputs": [
        {
          "internalType": "contract IDXNForge",
          "name": "",
          "type": "address"
        }
      ],
      "stateMutability": "view",
      "type": "function"
    },
    {
      "inputs": [],
      "name": "TIX_DEC",
      "outputs": [
        {
          "internalType": "uint256",
          "name": "",
          "type": "uint256"
        }
      ],
      "stateMutability": "view",
      "type": "function"
    },
    {
      "inputs": [],
      "name": "XEN",
      "outputs": [
        {
          "internalType": "contract IXEN",
          "name": "",
          "type": "address"
        }
      ],
      "stateMutability": "view",
      "type": "function"
    },
    {
      "inputs": [],
      "name": "XEN_BATCH",
      "outputs": [
        {
          "internalType": "uint256",
          "name": "",
          "type": "uint256"
        }
      ],
      "stateMutability": "view",
      "type": "function"
    },
    {
      "inputs": [],
      "name": "XEN_TOKEN",
      "outputs": [
        {
          "internalType": "contract IERC20",
          "name": "",
          "type": "address"
        }
      ],
      "stateMutability": "view",
      "type": "function"
    },
    {
      "inputs": [
        {
          "internalType": "uint256",
          "name": "b",
          "type": "uint256"
        }
      ],
      "name": "burnXEN",
      "outputs": [],
      "stateMutability": "payable",
      "type": "function"
    },
    {
      "inputs": [
        {
          "internalType": "uint256",
          "name": "b",
          "type": "uint256"
        }
      ],
      "name": "calcFee",
      "outputs": [
        {
          "internalType": "uint256",
          "name": "fee",
          "type": "uint256"
        },
        {
          "internalType": "uint256",
          "name": "disc",
          "type": "uint256"
        }
      ],
      "stateMutability": "pure",
      "type": "function"
    },
    {
      "inputs": [],
      "name": "owner",
      "outputs": [
        {
          "internalType": "address",
          "name": "",
          "type": "address"
        }
      ],
      "stateMutability": "view",
      "type": "function"
    },
    {
      "inputs": [],
      "name": "realBurn",
      "outputs": [
        {
          "internalType": "bool",
          "name": "",
          "type": "bool"
        }
      ],
      "stateMutability": "view",
      "type": "function"
    },
    {
      "inputs": [],
      "name": "renounceOwnership",
      "outputs": [],
      "stateMutability": "nonpayable",
      "type": "function"
    },
    {
      "inputs": [
        {
          "internalType": "bool",
          "name": "_on",
          "type": "bool"
        }
      ],
      "name": "setRealBurn",
      "outputs": [],
      "stateMutability": "nonpayable",
      "type": "function"
    },
    {
      "inputs": [
        {
          "internalType": "address",
          "name": "newOwner",
          "type": "address"
        }
      ],
      "name": "transferOwnership",
      "outputs": [],
      "stateMutability": "nonpayable",
      "type": "function"
    },
    {
      "inputs": [
        {
          "internalType": "address",
          "name": "",
          "type": "address"
        }
      ],
      "name": "userXenBurned",
      "outputs": [
        {
          "internalType": "uint256",
          "name": "",
          "type": "uint256"
        }
      ],
      "stateMutability": "view",
      "type": "function"
    },
    {
      "inputs": [],
      "name": "xenBurned",
      "outputs": [
        {
          "internalType": "uint256",
          "name": "",
          "type": "uint256"
        }
      ],
      "stateMutability": "view",
      "type": "function"
    },
    {
      "inputs": [],
      "name": "xenFees",
      "outputs": [
        {
          "internalType": "uint256",
          "name": "",
          "type": "uint256"
        }
      ],
      "stateMutability": "view",
      "type": "function"
    }
  ],
  "bytecode": "0x60e060405234801561001057600080fd5b50604051610b96380380610b9683398101604081905261002f916100f5565b806001600160a01b03811661005e57604051631e4fbdf760e01b81526000600482015260240160405180910390fd5b61006781610089565b5050600180556001600160a01b03918216608081905260a0521660c052610138565b600080546001600160a01b038381166001600160a01b0319831681178455604051919092169283917f8be0079c531659141344cd1fd0a4f28419497f9722a3daafe3b4186f6b6457e09190a35050565b80516001600160a01b03811681146100f057600080fd5b919050565b60008060006060848603121561010a57600080fd5b610113846100d9565b9250610121602085016100d9565b915061012f604085016100d9565b90509250925092565b60805160a05160c051610a136101836000396000818161021201526104c401526000818161029001526103fa01526000818161025c015281816103bb01526104750152610a136000f3fe6080604052600436106100ce5760003560e01c806311cd4700146100d357806339ee73fe146101025780633d18651e146101185780636630a05e14610132578063715018a61461014757806373937eeb1461015c57806375dc7d8c1461017c5780638da5cb5b146101b157806391699d89146101d35780639bf876c014610200578063ab257adf14610234578063ba3122911461024a578063c003598a1461027e578063c56904b6146102b2578063ea72aa50146102c8578063ec3a45f3146102e7578063f2fde38b14610311575b600080fd5b3480156100df57600080fd5b506100ef670de0b6b3a764000081565b6040519081526020015b60405180910390f35b34801561010e57600080fd5b506100ef61271081565b34801561012457600080fd5b506100ef650ae9f7bcc00081565b6101456101403660046108ca565b610331565b005b34801561015357600080fd5b5061014561066a565b34801561016857600080fd5b506101456101773660046108e3565b61067e565b34801561018857600080fd5b5061019c6101973660046108ca565b610699565b604080519283526020830191909152016100f9565b3480156101bd57600080fd5b506101c6610703565b6040516100f9919061090c565b3480156101df57600080fd5b506100ef6101ee366004610920565b60056020526000908152604090205481565b34801561020c57600080fd5b506101c67f000000000000000000000000000000000000000000000000000000000000000081565b34801561024057600080fd5b506100ef60045481565b34801561025657600080fd5b506101c67f000000000000000000000000000000000000000000000000000000000000000081565b34801561028a57600080fd5b506101c67f000000000000000000000000000000000000000000000000000000000000000081565b3480156102be57600080fd5b506100ef60035481565b3480156102d457600080fd5b506100ef6a021165458500521280000081565b3480156102f357600080fd5b506002546103019060ff1681565b60405190151581526020016100f9565b34801561031d57600080fd5b5061014561032c366004610920565b610712565b610339610756565b8060000361035a5760405163635492bf60e11b815260040160405180910390fd5b600061036582610699565b5090508034101561038957604051631b84bc9760e11b815260040160405180910390fd5b60006103a06a02116545850052128000008461095f565b60025490915060ff1615610468576103e36001600160a01b037f000000000000000000000000000000000000000000000000000000000000000016333084610780565b604051632770a7eb60e21b81526001600160a01b037f00000000000000000000000000000000000000000000000000000000000000001690639dc29fac90610431903390859060040161097c565b600060405180830381600087803b15801561044b57600080fd5b505af115801561045f573d6000803e3d6000fd5b5050505061049f565b61049f6001600160a01b037f0000000000000000000000000000000000000000000000000000000000000000163361dead84610780565b60006127106104b6670de0b6b3a76400008661095f565b6104c09190610995565b90507f00000000000000000000000000000000000000000000000000000000000000006001600160a01b031663e2f585bf8433846040518463ffffffff1660e01b815260040161051192919061097c565b6000604051808303818588803b15801561052a57600080fd5b505af115801561053e573d6000803e3d6000fd5b5050505050816003600082825461055591906109b7565b92505081905550826004600082825461056e91906109b7565b909155505033600090815260056020526040812080548492906105929084906109b7565b909155505034831015610611576000336105ac85346109ca565b604051600081818185875af1925050503d80600081146105e8576040519150601f19603f3d011682016040523d82523d6000602084013e6105ed565b606091505b505090508061060f5760405163552670ff60e01b815260040160405180910390fd5b505b60408051858152602081018490529081018290526060810184905233907f442f5be999fdb485d3006ddc6bbf571f4f1db17aac5dd4c68bb80cf2f19d44559060800160405180910390a250505061066760018055565b50565b6106726107e0565b61067c6000610812565b565b6106866107e0565b6002805460ff1916911515919091179055565b600080826000036106af57506000928392509050565b6106ba600284610995565b90506113888111156106cb57506113885b6127106106d882826109ca565b6106e885650ae9f7bcc00061095f565b6106f2919061095f565b6106fc9190610995565b9150915091565b6000546001600160a01b031690565b61071a6107e0565b6001600160a01b03811661074d576000604051631e4fbdf760e01b8152600401610744919061090c565b60405180910390fd5b61066781610812565b60026001540361077957604051633ee5aeb560e01b815260040160405180910390fd5b6002600155565b604080516001600160a01b0385811660248301528416604482015260648082018490528251808303909101815260849091019091526020810180516001600160e01b03166323b872dd60e01b1790526107da908590610862565b50505050565b336107e9610703565b6001600160a01b03161461067c573360405163118cdaa760e01b8152600401610744919061090c565b600080546001600160a01b038381166001600160a01b0319831681178455604051919092169283917f8be0079c531659141344cd1fd0a4f28419497f9722a3daafe3b4186f6b6457e09190a35050565b600080602060008451602086016000885af180610885576040513d6000823e3d81fd5b50506000513d9150811561089d5780600114156108aa565b6001600160a01b0384163b155b156107da5783604051635274afe760e01b8152600401610744919061090c565b6000602082840312156108dc57600080fd5b5035919050565b6000602082840312156108f557600080fd5b8135801515811461090557600080fd5b9392505050565b6001600160a01b0391909116815260200190565b60006020828403121561093257600080fd5b81356001600160a01b038116811461090557600080fd5b634e487b7160e01b600052601160045260246000fd5b808202811582820484141761097657610976610949565b92915050565b6001600160a01b03929092168252602082015260400190565b6000826109b257634e487b7160e01b600052601260045260246000fd5b500490565b8082018082111561097657610976610949565b818103818111156109765761097661094956fea2646970667358221220e36a09cae6f9f9699c22493df3d1dda474786c559a1ad8bde78be1e3315b59d164736f6c634300081a0033",
  "linkReferences": {},
  "deployedLinkReferences": {}
}