{
  "_format": "hh-sol-artifact-1",
  "contractName": "GOLDToken",
  "sourceName": "contracts/GOLDToken.sol",
  "abi": [
    {
      "inputs": [
        {
          "internalType": "address",
          "name": "_owner",
          "type": "address"
        }
      ],
      "stateMutability": "nonpayable",
      "type": "constructor"
    },
    {
      "inputs": [
        {
          "internalType": "address",
          "name": "spender",
          "type": "address"
        },
        {
          "internalType": "uint256",
          "name": "allowance",
          "type": "uint256"
        },
        {
          "internalType": "uint256",
          "name": "needed",
          "type": "uint256"
        }
      ],
      "name": "ERC20InsufficientAllowance",
      "type": "error"
    },
    {
      "inputs": [
        {
          "internalType": "address",
          "name": "sender",
          "type": "address"
        },
        {
          "internalType": "uint256",
          "name": "balance",
          "type": "uint256"
        },
        {
          "internalType": "uint256",
          "name": "needed",
          "type": "uint256"
        }
      ],
      "name": "ERC20InsufficientBalance",
      "type": "error"
    },
    {
      "inputs": [
        {
          "internalType": "address",
          "name": "approver",
          "type": "address"
        }
      ],
      "name": "ERC20InvalidApprover",
      "type": "error"
    },
    {
      "inputs": [
        {
          "internalType": "address",
          "name": "receiver",
          "type": "address"
        }
      ],
      "name": "ERC20InvalidReceiver",
      "type": "error"
    },
    {
      "inputs": [
        {
          "internalType": "address",
          "name": "sender",
          "type": "address"
        }
      ],
      "name": "ERC20InvalidSender",
      "type": "error"
    },
    {
      "inputs": [
        {
          "internalType": "address",
          "name": "spender",
          "type": "address"
        }
      ],
      "name": "ERC20InvalidSpender",
      "type": "error"
    },
    {
      "inputs": [],
      "name": "OnlyForge",
      "type": "error"
    },
    {
      "inputs": [
        {
          "internalType": "address",
          "name": "owner",
          "type": "address"
        }
      ],
      "name": "OwnableInvalidOwner",
      "type": "error"
    },
    {
      "inputs": [
        {
          "internalType": "address",
          "name": "account",
          "type": "address"
        }
      ],
      "name": "OwnableUnauthorizedAccount",
      "type": "error"
    },
    {
      "anonymous": false,
      "inputs": [
        {
          "indexed": true,
          "internalType": "address",
          "name": "owner",
          "type": "address"
        },
        {
          "indexed": true,
          "internalType": "address",
          "name": "spender",
          "type": "address"
        },
        {
          "indexed": false,
          "internalType": "uint256",
          "name": "value",
          "type": "uint256"
        }
      ],
      "name": "Approval",
      "type": "event"
    },
    {
      "anonymous": false,
      "inputs": [
        {
          "indexed": true,
          "internalType": "address",
          "name": "previousOwner",
          "type": "address"
        },
        {
          "indexed": true,
          "internalType": "address",
          "name": "newOwner",
          "type": "address"
        }
      ],
      "name": "OwnershipTransferred",
      "type": "event"
    },
    {
      "anonymous": false,
      "inputs": [
        {
          "indexed": true,
          "internalType": "address",
          "name": "from",
          "type": "address"
        },
        {
          "indexed": true,
          "internalType": "address",
          "name": "to",
          "type": "address"
        },
        {
          "indexed": false,
          "internalType": "uint256",
          "name": "value",
          "type": "uint256"
        }
      ],
      "name": "Transfer",
      "type": "event"
    },
    {
      "inputs": [
        {
          "internalType": "address",
          "name": "owner",
          "type": "address"
        },
        {
          "internalType": "address",
          "name": "spender",
          "type": "address"
        }
      ],
      "name": "allowance",
      "outputs": [
        {
          "internalType": "uint256",
          "name": "",
          "type": "uint256"
        }
      ],
      "stateMutability": "view",
      "type": "function"
    },
    {
      "inputs": [
        {
          "internalType": "address",
          "name": "spender",
          "type": "address"
        },
        {
          "internalType": "uint256",
          "name": "value",
          "type": "uint256"
        }
      ],
      "name": "approve",
      "outputs": [
        {
          "internalType": "bool",
          "name": "",
          "type": "bool"
        }
      ],
      "stateMutability": "nonpayable",
      "type": "function"
    },
    {
      "inputs": [
        {
          "internalType": "address",
          "name": "account",
          "type": "address"
        }
      ],
      "name": "balanceOf",
      "outputs": [
        {
          "internalType": "uint256",
          "name": "",
          "type": "uint256"
        }
      ],
      "stateMutability": "view",
      "type": "function"
    },
    {
      "inputs": [],
      "name": "decimals",
      "outputs": [
        {
          "internalType": "uint8",
          "name": "",
          "type": "uint8"
        }
      ],
      "stateMutability": "view",
      "type": "function"
    },
    {
      "inputs": [],
      "name": "forge",
      "outputs": [
        {
          "internalType": "address",
          "name": "",
          "type": "address"
        }
      ],
      "stateMutability": "view",
      "type": "function"
    },
    {
      "inputs": [
        {
          "internalType": "address",
          "name": "to",
          "type": "address"
        },
        {
          "internalType": "uint256",
          "name": "amount",
          "type": "uint256"
        }
      ],
      "name": "mint",
      "outputs": [],
      "stateMutability": "nonpayable",
      "type": "function"
    },
    {
      "inputs": [],
      "name": "name",
      "outputs": [
        {
          "internalType": "string",
          "name": "",
          "type": "string"
        }
      ],
      "stateMutability": "view",
      "type": "function"
    },
    {
      "inputs": [],
      "name": "owner",
      "outputs": [
        {
          "internalType": "address",
          "name": "",
          "type": "address"
        }
      ],
      "stateMutability": "view",
      "type": "function"
    },
    {
      "inputs": [],
      "name": "renounceOwnership",
      "outputs": [],
      "stateMutability": "nonpayable",
      "type": "function"
    },
    {
      "inputs": [
        {
          "internalType": "address",
          "name": "_forge",
          "type": "address"
        }
      ],
      "name": "setForge",
      "outputs": [],
      "stateMutability": "nonpayable",
      "type": "function"
    },
    {
      "inputs": [],
      "name": "symbol",
      "outputs": [
        {
          "internalType": "string",
          "name": "",
          "type": "string"
        }
      ],
      "stateMutability": "view",
      "type": "function"
    },
    {
      "inputs": [],
      "name": "totalSupply",
      "outputs": [
        {
          "internalType": "uint256",
          "name": "",
          "type": "uint256"
        }
      ],
      "stateMutability": "view",
      "type": "function"
    },
    {
      "inputs": [
        {
          "internalType": "address",
          "name": "to",
          "type": "address"
        },
        {
          "internalType": "uint256",
          "name": "value",
          "type": "uint256"
        }
      ],
      "name": "transfer",
      "outputs": [
        {
          "internalType": "bool",
          "name": "",
          "type": "bool"
        }
      ],
      "stateMutability": "nonpayable",
      "type": "function"
    },
    {
      "inputs": [
        {
          "internalType": "address",
          "name": "from",
          "type": "address"
        },
        {
          "internalType": "address",
          "name": "to",
          "type": "address"
        },
        {
          "internalType": "uint256",
          "name": "value",
          "type": "uint256"
        }
      ],
      "name": "transferFrom",
      "outputs": [
        {
          "internalType": "bool",
          "name": "",
          "type": "bool"
        }
      ],
      "stateMutability": "nonpayable",
      "type": "function"
    },
    {
      "inputs": [
        {
          "internalType": "address",
          "name": "newOwner",
          "type": "address"
        }
      ],
      "name": "transferOwnership",
      "outputs": [],
      "stateMutability": "nonpayable",
      "type": "function"
    }
  ],
  "bytecode": "0x608060405234801561001057600080fd5b50604051610bf6380380610bf683398101604081905261002f9161011d565b80604051806040016040528060088152602001671116138811d3d31160c21b8152506040518060400160405280600481526020016311d3d31160e21b815250816003908161007d91906101ec565b50600461008a82826101ec565b5050506001600160a01b0381166100bb57604051631e4fbdf760e01b81526000600482015260240160405180910390fd5b6100c4816100cb565b50506102aa565b600580546001600160a01b038381166001600160a01b0319831681179093556040519116919082907f8be0079c531659141344cd1fd0a4f28419497f9722a3daafe3b4186f6b6457e090600090a35050565b60006020828403121561012f57600080fd5b81516001600160a01b038116811461014657600080fd5b9392505050565b634e487b7160e01b600052604160045260246000fd5b600181811c9082168061017757607f821691505b60208210810361019757634e487b7160e01b600052602260045260246000fd5b50919050565b601f8211156101e757806000526020600020601f840160051c810160208510156101c45750805b601f840160051c820191505b818110156101e457600081556001016101d0565b50505b505050565b81516001600160401b038111156102055761020561014d565b610219816102138454610163565b8461019d565b6020601f82116001811461024d57600083156102355750848201515b600019600385901b1c1916600184901b1784556101e4565b600084815260208120601f198516915b8281101561027d578785015182556020948501946001909201910161025d565b508482101561029b5786840151600019600387901b60f8161c191681555b50505050600190811b01905550565b61093d806102b96000396000f3fe608060405234801561001057600080fd5b50600436106100c55760003560e01c806306fdde03146100ca578063095ea7b3146100e857806318160ddd1461010b57806323b872dd1461011d578063313ce5671461013057806340c10f191461013f5780636c6f42391461015457806370a0823114610174578063715018a61461019d5780638da5cb5b146101a557806395d89b41146101ad57806397010ae9146101b5578063a9059cbb146101c8578063dd62ed3e146101db578063f2fde38b146101ee575b600080fd5b6100d2610201565b6040516100df9190610751565b60405180910390f35b6100fb6100f63660046107bb565b610293565b60405190151581526020016100df565b6002545b6040519081526020016100df565b6100fb61012b3660046107e5565b6102ad565b604051601281526020016100df565b61015261014d3660046107bb565b6102d1565b005b600654610167906001600160a01b031681565b6040516100df9190610822565b61010f610182366004610836565b6001600160a01b031660009081526020819052604090205490565b61015261030a565b61016761031e565b6100d261032d565b6101526101c3366004610836565b61033c565b6100fb6101d63660046107bb565b610366565b61010f6101e9366004610858565b610374565b6101526101fc366004610836565b61039f565b6060600380546102109061088b565b80601f016020809104026020016040519081016040528092919081815260200182805461023c9061088b565b80156102895780601f1061025e57610100808354040283529160200191610289565b820191906000526020600020905b81548152906001019060200180831161026c57829003601f168201915b5050505050905090565b6000336102a18185856103e6565b60019150505b92915050565b6000336102bb8582856103f8565b6102c685858561044c565b506001949350505050565b6006546001600160a01b031633146102fc57604051630c4cff4360e21b815260040160405180910390fd5b61030682826104ab565b5050565b6103126104e1565b61031c6000610513565b565b6005546001600160a01b031690565b6060600480546102109061088b565b6103446104e1565b600680546001600160a01b0319166001600160a01b0392909216919091179055565b6000336102a181858561044c565b6001600160a01b03918216600090815260016020908152604080832093909416825291909152205490565b6103a76104e1565b6001600160a01b0381166103da576000604051631e4fbdf760e01b81526004016103d19190610822565b60405180910390fd5b6103e381610513565b50565b6103f38383836001610565565b505050565b60006104048484610374565b9050600019811015610446578181101561043757828183604051637dc7a0d960e11b81526004016103d1939291906108c5565b61044684848484036000610565565b50505050565b6001600160a01b038316610476576000604051634b637e8f60e11b81526004016103d19190610822565b6001600160a01b0382166104a057600060405163ec442f0560e01b81526004016103d19190610822565b6103f383838361063a565b6001600160a01b0382166104d557600060405163ec442f0560e01b81526004016103d19190610822565b6103066000838361063a565b336104ea61031e565b6001600160a01b03161461031c573360405163118cdaa760e01b81526004016103d19190610822565b600580546001600160a01b038381166001600160a01b0319831681179093556040519116919082907f8be0079c531659141344cd1fd0a4f28419497f9722a3daafe3b4186f6b6457e090600090a35050565b6001600160a01b03841661058f57600060405163e602df0560e01b81526004016103d19190610822565b6001600160a01b0383166105b9576000604051634a1406b160e11b81526004016103d19190610822565b6001600160a01b038085166000908152600160209081526040808320938716835292905220829055801561044657826001600160a01b0316846001600160a01b03167f8c5be1e5ebec7d5bd14f71427d1e84f3dd0314c0f7b2291e5b200ac8c7c3b9258460405161062c91815260200190565b60405180910390a350505050565b6001600160a01b03831661066557806002600082825461065a91906108e6565b909155506106c49050565b6001600160a01b038316600090815260208190526040902054818110156106a55783818360405163391434e360e21b81526004016103d1939291906108c5565b6001600160a01b03841660009081526020819052604090209082900390555b6001600160a01b0382166106e0576002805482900390556106ff565b6001600160a01b03821660009081526020819052604090208054820190555b816001600160a01b0316836001600160a01b03167fddf252ad1be2c89b69c2b068fc378daa952ba7f163c4a11628f55a4df523b3ef8360405161074491815260200190565b60405180910390a3505050565b602081526000825180602084015260005b8181101561077f5760208186018101516040868401015201610762565b506000604082850101526040601f19601f83011684010191505092915050565b80356001600160a01b03811681146107b657600080fd5b919050565b600080604083850312156107ce57600080fd5b6107d78361079f565b946020939093013593505050565b6000806000606084860312156107fa57600080fd5b6108038461079f565b92506108116020850161079f565b929592945050506040919091013590565b6001600160a01b0391909116815260200190565b60006020828403121561084857600080fd5b6108518261079f565b9392505050565b6000806040838503121561086b57600080fd5b6108748361079f565b91506108826020840161079f565b90509250929050565b600181811c9082168061089f57607f821691505b6020821081036108bf57634e487b7160e01b600052602260045260246000fd5b50919050565b6001600160a01b039390931683526020830191909152604082015260600190565b808201808211156102a757634e487b7160e01b600052601160045260246000fdfea2646970667358221220439f647429cd0683604698a3a16ab43da0a956916a646f32155c3563b8dc8c9064736f6c634300081a0033",
  "linkReferences": {},
  "deployedLinkReferences": {}
}