{"abi":[{"type":"constructor","inputs":[],"stateMutability":"nonpayable"},{"type":"function","name":"DRIP_AMOUNT","inputs":[],"outputs":[{"name":"","type":"uint256","internalType":"uint256"}],"stateMutability":"view"},{"type":"function","name":"DRIP_INTERVAL","inputs":[],"outputs":[{"name":"","type":"uint256","internalType":"uint256"}],"stateMutability":"view"},{"type":"function","name":"TOTAL_SUPPLY","inputs":[],"outputs":[{"name":"","type":"uint256","internalType":"uint256"}],"stateMutability":"view"},{"type":"function","name":"allowance","inputs":[{"name":"owner","type":"address","internalType":"address"},{"name":"spender","type":"address","internalType":"address"}],"outputs":[{"name":"","type":"uint256","internalType":"uint256"}],"stateMutability":"view"},{"type":"function","name":"approve","inputs":[{"name":"spender","type":"address","internalType":"address"},{"name":"value","type":"uint256","internalType":"uint256"}],"outputs":[{"name":"","type":"bool","internalType":"bool"}],"stateMutability":"nonpayable"},{"type":"function","name":"balanceOf","inputs":[{"name":"account","type":"address","internalType":"address"}],"outputs":[{"name":"","type":"uint256","internalType":"uint256"}],"stateMutability":"view"},{"type":"function","name":"claim","inputs":[],"outputs":[],"stateMutability":"nonpayable"},{"type":"function","name":"decimals","inputs":[],"outputs":[{"name":"","type":"uint8","internalType":"uint8"}],"stateMutability":"view"},{"type":"function","name":"lastClaim","inputs":[{"name":"","type":"address","internalType":"address"}],"outputs":[{"name":"","type":"uint256","internalType":"uint256"}],"stateMutability":"view"},{"type":"function","name":"name","inputs":[],"outputs":[{"name":"","type":"string","internalType":"string"}],"stateMutability":"view"},{"type":"function","name":"owner","inputs":[],"outputs":[{"name":"","type":"address","internalType":"address"}],"stateMutability":"view"},{"type":"function","name":"refill","inputs":[{"name":"amount","type":"uint256","internalType":"uint256"}],"outputs":[],"stateMutability":"nonpayable"},{"type":"function","name":"renounceOwnership","inputs":[],"outputs":[],"stateMutability":"nonpayable"},{"type":"function","name":"symbol","inputs":[],"outputs":[{"name":"","type":"string","internalType":"string"}],"stateMutability":"view"},{"type":"function","name":"timeUntilNextClaim","inputs":[{"name":"user","type":"address","internalType":"address"}],"outputs":[{"name":"","type":"uint256","internalType":"uint256"}],"stateMutability":"view"},{"type":"function","name":"totalSupply","inputs":[],"outputs":[{"name":"","type":"uint256","internalType":"uint256"}],"stateMutability":"view"},{"type":"function","name":"transfer","inputs":[{"name":"to","type":"address","internalType":"address"},{"name":"value","type":"uint256","internalType":"uint256"}],"outputs":[{"name":"","type":"bool","internalType":"bool"}],"stateMutability":"nonpayable"},{"type":"function","name":"transferFrom","inputs":[{"name":"from","type":"address","internalType":"address"},{"name":"to","type":"address","internalType":"address"},{"name":"value","type":"uint256","internalType":"uint256"}],"outputs":[{"name":"","type":"bool","internalType":"bool"}],"stateMutability":"nonpayable"},{"type":"function","name":"transferOwnership","inputs":[{"name":"newOwner","type":"address","internalType":"address"}],"outputs":[],"stateMutability":"nonpayable"},{"type":"function","name":"withdraw","inputs":[{"name":"amount","type":"uint256","internalType":"uint256"}],"outputs":[],"stateMutability":"nonpayable"},{"type":"event","name":"Approval","inputs":[{"name":"owner","type":"address","indexed":true,"internalType":"address"},{"name":"spender","type":"address","indexed":true,"internalType":"address"},{"name":"value","type":"uint256","indexed":false,"internalType":"uint256"}],"anonymous":false},{"type":"event","name":"Claimed","inputs":[{"name":"user","type":"address","indexed":true,"internalType":"address"},{"name":"amount","type":"uint256","indexed":false,"internalType":"uint256"}],"anonymous":false},{"type":"event","name":"OwnershipTransferred","inputs":[{"name":"previousOwner","type":"address","indexed":true,"internalType":"address"},{"name":"newOwner","type":"address","indexed":true,"internalType":"address"}],"anonymous":false},{"type":"event","name":"Transfer","inputs":[{"name":"from","type":"address","indexed":true,"internalType":"address"},{"name":"to","type":"address","indexed":true,"internalType":"address"},{"name":"value","type":"uint256","indexed":false,"internalType":"uint256"}],"anonymous":false},{"type":"error","name":"ERC20InsufficientAllowance","inputs":[{"name":"spender","type":"address","internalType":"address"},{"name":"allowance","type":"uint256","internalType":"uint256"},{"name":"needed","type":"uint256","internalType":"uint256"}]},{"type":"error","name":"ERC20InsufficientBalance","inputs":[{"name":"sender","type":"address","internalType":"address"},{"name":"balance","type":"uint256","internalType":"uint256"},{"name":"needed","type":"uint256","internalType":"uint256"}]},{"type":"error","name":"ERC20InvalidApprover","inputs":[{"name":"approver","type":"address","internalType":"address"}]},{"type":"error","name":"ERC20InvalidReceiver","inputs":[{"name":"receiver","type":"address","internalType":"address"}]},{"type":"error","name":"ERC20InvalidSender","inputs":[{"name":"sender","type":"address","internalType":"address"}]},{"type":"error","name":"ERC20InvalidSpender","inputs":[{"name":"spender","type":"address","internalType":"address"}]},{"type":"error","name":"OwnableInvalidOwner","inputs":[{"name":"owner","type":"address","internalType":"address"}]},{"type":"error","name":"OwnableUnauthorizedAccount","inputs":[{"name":"account","type":"address","internalType":"address"}]}],"bytecode":{"object":"0x608060405234801562000010575f80fd5b50336040518060400160405280600881526020017f546573742044584e0000000000000000000000000000000000000000000000008152506040518060400160405280600481526020017f7444584e0000000000000000000000000000000000000000000000000000000081525081600390816200008f919062000721565b508060049081620000a1919062000721565b5050505f73ffffffffffffffffffffffffffffffffffffffff168173ffffffffffffffffffffffffffffffffffffffff160362000117575f6040517f1e4fbdf70000000000000000000000000000000000000000000000000000000081526004016200010e919062000848565b60405180910390fd5b62000128816200014c60201b60201c565b5062000146306a0422ca8b0a00a4250000006200020f60201b60201c565b62000931565b5f60055f9054906101000a900473ffffffffffffffffffffffffffffffffffffffff1690508160055f6101000a81548173ffffffffffffffffffffffffffffffffffffffff021916908373ffffffffffffffffffffffffffffffffffffffff1602179055508173ffffffffffffffffffffffffffffffffffffffff168173ffffffffffffffffffffffffffffffffffffffff167f8be0079c531659141344cd1fd0a4f28419497f9722a3daafe3b4186f6b6457e060405160405180910390a35050565b5f73ffffffffffffffffffffffffffffffffffffffff168273ffffffffffffffffffffffffffffffffffffffff160362000282575f6040517fec442f0500000000000000000000000000000000000000000000000000000000815260040162000279919062000848565b60405180910390fd5b620002955f83836200029960201b60201c565b5050565b5f73ffffffffffffffffffffffffffffffffffffffff168373ffffffffffffffffffffffffffffffffffffffff1603620002ed578060025f828254620002e0919062000890565b92505081905550620003be565b5f805f8573ffffffffffffffffffffffffffffffffffffffff1673ffffffffffffffffffffffffffffffffffffffff1681526020019081526020015f205490508181101562000379578381836040517fe450d38c0000000000000000000000000000000000000000000000000000000081526004016200037093929190620008db565b60405180910390fd5b8181035f808673ffffffffffffffffffffffffffffffffffffffff1673ffffffffffffffffffffffffffffffffffffffff1681526020019081526020015f2081905550505b5f73ffffffffffffffffffffffffffffffffffffffff168273ffffffffffffffffffffffffffffffffffffffff160362000407578060025f828254039250508190555062000451565b805f808473ffffffffffffffffffffffffffffffffffffffff1673ffffffffffffffffffffffffffffffffffffffff1681526020019081526020015f205f82825401925050819055505b8173ffffffffffffffffffffffffffffffffffffffff168373ffffffffffffffffffffffffffffffffffffffff167fddf252ad1be2c89b69c2b068fc378daa952ba7f163c4a11628f55a4df523b3ef83604051620004b0919062000916565b60405180910390a3505050565b5f81519050919050565b7f4e487b71000000000000000000000000000000000000000000000000000000005f52604160045260245ffd5b7f4e487b71000000000000000000000000000000000000000000000000000000005f52602260045260245ffd5b5f60028204905060018216806200053957607f821691505b6020821081036200054f576200054e620004f4565b5b50919050565b5f819050815f5260205f209050919050565b5f6020601f8301049050919050565b5f82821b905092915050565b5f60088302620005b37fffffffffffffffffffffffffffffffffffffffffffffffffffffffffffffffff8262000576565b620005bf868362000576565b95508019841693508086168417925050509392505050565b5f819050919050565b5f819050919050565b5f6200060962000603620005fd84620005d7565b620005e0565b620005d7565b9050919050565b5f819050919050565b6200062483620005e9565b6200063c620006338262000610565b84845462000582565b825550505050565b5f90565b6200065262000644565b6200065f81848462000619565b505050565b5b8181101562000686576200067a5f8262000648565b60018101905062000665565b5050565b601f821115620006d5576200069f8162000555565b620006aa8462000567565b81016020851015620006ba578190505b620006d2620006c98562000567565b83018262000664565b50505b505050565b5f82821c905092915050565b5f620006f75f1984600802620006da565b1980831691505092915050565b5f620007118383620006e6565b9150826002028217905092915050565b6200072c82620004bd565b67ffffffffffffffff811115620007485762000747620004c7565b5b62000754825462000521565b620007618282856200068a565b5f60209050601f83116001811462000797575f841562000782578287015190505b6200078e858262000704565b865550620007fd565b601f198416620007a78662000555565b5f5b82811015620007d057848901518255600182019150602085019450602081019050620007a9565b86831015620007f05784890151620007ec601f891682620006e6565b8355505b6001600288020188555050505b505050505050565b5f73ffffffffffffffffffffffffffffffffffffffff82169050919050565b5f620008308262000805565b9050919050565b620008428162000824565b82525050565b5f6020820190506200085d5f83018462000837565b92915050565b7f4e487b71000000000000000000000000000000000000000000000000000000005f52601160045260245ffd5b5f6200089c82620005d7565b9150620008a983620005d7565b9250828201905080821115620008c457620008c362000863565b5b92915050565b620008d581620005d7565b82525050565b5f606082019050620008f05f83018662000837565b620008ff6020830185620008ca565b6200090e6040830184620008ca565b949350505050565b5f6020820190506200092b5f830184620008ca565b92915050565b6115f3806200093f5f395ff3fe608060405234801561000f575f80fd5b506004361061012a575f3560e01c8063715018a6116100ab578063a9059cbb1161006f578063a9059cbb14610320578063ca9d07ba14610350578063dd62ed3e1461036c578063e98890a71461039c578063f2fde38b146103ba5761012a565b8063715018a61461028c5780638da5cb5b14610296578063902d55a5146102b457806392d82dbe146102d257806395d89b41146103025761012a565b8063313ce567116100f2578063313ce567146101e65780634e71d92d146102045780635c16e15e1461020e5780635d8bc6b71461023e57806370a082311461025c5761012a565b806306fdde031461012e578063095ea7b31461014c57806318160ddd1461017c57806323b872dd1461019a5780632e1a7d4d146101ca575b5f80fd5b6101366103d6565b604051610143919061113e565b60405180910390f35b610166600480360381019061016191906111ef565b610466565b6040516101739190611247565b60405180910390f35b610184610488565b604051610191919061126f565b60405180910390f35b6101b460048036038101906101af9190611288565b610491565b6040516101c19190611247565b60405180910390f35b6101e460048036038101906101df91906112d8565b6104bf565b005b6101ee6104d5565b6040516101fb919061131e565b60405180910390f35b61020c6104dd565b005b61022860048036038101906102239190611337565b61066e565b604051610235919061126f565b60405180910390f35b610246610683565b604051610253919061126f565b60405180910390f35b61027660048036038101906102719190611337565b61068a565b604051610283919061126f565b60405180910390f35b6102946106cf565b005b61029e6106e2565b6040516102ab9190611371565b60405180910390f35b6102bc61070a565b6040516102c9919061126f565b60405180910390f35b6102ec60048036038101906102e79190611337565b610719565b6040516102f9919061126f565b60405180910390f35b61030a61078e565b604051610317919061113e565b60405180910390f35b61033a600480360381019061033591906111ef565b61081e565b6040516103479190611247565b60405180910390f35b61036a600480360381019061036591906112d8565b610840565b005b6103866004803603810190610381919061138a565b610855565b604051610393919061126f565b60405180910390f35b6103a46108d7565b6040516103b1919061126f565b60405180910390f35b6103d460048036038101906103cf9190611337565b6108e4565b005b6060600380546103e5906113f5565b80601f0160208091040260200160405190810160405280929190818152602001828054610411906113f5565b801561045c5780601f106104335761010080835404028352916020019161045c565b820191905f5260205f20905b81548152906001019060200180831161043f57829003601f168201915b5050505050905090565b5f80610470610968565b905061047d81858561096f565b600191505092915050565b5f600254905090565b5f8061049b610968565b90506104a8858285610981565b6104b3858585610a13565b60019150509392505050565b6104c7610b03565b6104d2303383610a13565b50565b5f6012905090565b6201518060065f3373ffffffffffffffffffffffffffffffffffffffff1673ffffffffffffffffffffffffffffffffffffffff1681526020019081526020015f20546105299190611452565b42101561056b576040517f08c379a0000000000000000000000000000000000000000000000000000000008152600401610562906114cf565b60405180910390fd5b683635c9adc5dea0000061057e3061068a565b10156105bf576040517f08c379a00000000000000000000000000000000000000000000000000000000081526004016105b690611537565b60405180910390fd5b4260065f3373ffffffffffffffffffffffffffffffffffffffff1673ffffffffffffffffffffffffffffffffffffffff1681526020019081526020015f20819055506106153033683635c9adc5dea00000610a13565b3373ffffffffffffffffffffffffffffffffffffffff167fd8138f8a3f377c5259ca548e70e4c2de94f129f5a11036a15b69513cba2b426a683635c9adc5dea00000604051610664919061126f565b60405180910390a2565b6006602052805f5260405f205f915090505481565b6201518081565b5f805f8373ffffffffffffffffffffffffffffffffffffffff1673ffffffffffffffffffffffffffffffffffffffff1681526020019081526020015f20549050919050565b6106d7610b03565b6106e05f610b8a565b565b5f60055f9054906101000a900473ffffffffffffffffffffffffffffffffffffffff16905090565b6a0422ca8b0a00a42500000081565b5f806201518060065f8573ffffffffffffffffffffffffffffffffffffffff1673ffffffffffffffffffffffffffffffffffffffff1681526020019081526020015f20546107679190611452565b9050804210610779575f915050610789565b42816107859190611555565b9150505b919050565b60606004805461079d906113f5565b80601f01602080910402602001604051908101604052809291908181526020018280546107c9906113f5565b80156108145780601f106107eb57610100808354040283529160200191610814565b820191905f5260205f20905b8154815290600101906020018083116107f757829003601f168201915b5050505050905090565b5f80610828610968565b9050610835818585610a13565b600191505092915050565b610848610b03565b6108523082610c4d565b50565b5f60015f8473ffffffffffffffffffffffffffffffffffffffff1673ffffffffffffffffffffffffffffffffffffffff1681526020019081526020015f205f8373ffffffffffffffffffffffffffffffffffffffff1673ffffffffffffffffffffffffffffffffffffffff1681526020019081526020015f2054905092915050565b683635c9adc5dea0000081565b6108ec610b03565b5f73ffffffffffffffffffffffffffffffffffffffff168173ffffffffffffffffffffffffffffffffffffffff160361095c575f6040517f1e4fbdf70000000000000000000000000000000000000000000000000000000081526004016109539190611371565b60405180910390fd5b61096581610b8a565b50565b5f33905090565b61097c8383836001610ccc565b505050565b5f61098c8484610855565b90507fffffffffffffffffffffffffffffffffffffffffffffffffffffffffffffffff8114610a0d57818110156109fe578281836040517ffb8f41b20000000000000000000000000000000000000000000000000000000081526004016109f593929190611588565b60405180910390fd5b610a0c84848484035f610ccc565b5b50505050565b5f73ffffffffffffffffffffffffffffffffffffffff168373ffffffffffffffffffffffffffffffffffffffff1603610a83575f6040517f96c6fd1e000000000000000000000000000000000000000000000000000000008152600401610a7a9190611371565b60405180910390fd5b5f73ffffffffffffffffffffffffffffffffffffffff168273ffffffffffffffffffffffffffffffffffffffff1603610af3575f6040517fec442f05000000000000000000000000000000000000000000000000000000008152600401610aea9190611371565b60405180910390fd5b610afe838383610e9b565b505050565b610b0b610968565b73ffffffffffffffffffffffffffffffffffffffff16610b296106e2565b73ffffffffffffffffffffffffffffffffffffffff1614610b8857610b4c610968565b6040517f118cdaa7000000000000000000000000000000000000000000000000000000008152600401610b7f9190611371565b60405180910390fd5b565b5f60055f9054906101000a900473ffffffffffffffffffffffffffffffffffffffff1690508160055f6101000a81548173ffffffffffffffffffffffffffffffffffffffff021916908373ffffffffffffffffffffffffffffffffffffffff1602179055508173ffffffffffffffffffffffffffffffffffffffff168173ffffffffffffffffffffffffffffffffffffffff167f8be0079c531659141344cd1fd0a4f28419497f9722a3daafe3b4186f6b6457e060405160405180910390a35050565b5f73ffffffffffffffffffffffffffffffffffffffff168273ffffffffffffffffffffffffffffffffffffffff1603610cbd575f6040517fec442f05000000000000000000000000000000000000000000000000000000008152600401610cb49190611371565b60405180910390fd5b610cc85f8383610e9b565b5050565b5f73ffffffffffffffffffffffffffffffffffffffff168473ffffffffffffffffffffffffffffffffffffffff1603610d3c575f6040517fe602df05000000000000000000000000000000000000000000000000000000008152600401610d339190611371565b60405180910390fd5b5f73ffffffffffffffffffffffffffffffffffffffff168373ffffffffffffffffffffffffffffffffffffffff1603610dac575f6040517f94280d62000000000000000000000000000000000000000000000000000000008152600401610da39190611371565b60405180910390fd5b8160015f8673ffffffffffffffffffffffffffffffffffffffff1673ffffffffffffffffffffffffffffffffffffffff1681526020019081526020015f205f8573ffffffffffffffffffffffffffffffffffffffff1673ffffffffffffffffffffffffffffffffffffffff1681526020019081526020015f20819055508015610e95578273ffffffffffffffffffffffffffffffffffffffff168473ffffffffffffffffffffffffffffffffffffffff167f8c5be1e5ebec7d5bd14f71427d1e84f3dd0314c0f7b2291e5b200ac8c7c3b92584604051610e8c919061126f565b60405180910390a35b50505050565b5f73ffffffffffffffffffffffffffffffffffffffff168373ffffffffffffffffffffffffffffffffffffffff1603610eeb578060025f828254610edf9190611452565b92505081905550610fb9565b5f805f8573ffffffffffffffffffffffffffffffffffffffff1673ffffffffffffffffffffffffffffffffffffffff1681526020019081526020015f2054905081811015610f74578381836040517fe450d38c000000000000000000000000000000000000000000000000000000008152600401610f6b93929190611588565b60405180910390fd5b8181035f808673ffffffffffffffffffffffffffffffffffffffff1673ffffffffffffffffffffffffffffffffffffffff1681526020019081526020015f2081905550505b5f73ffffffffffffffffffffffffffffffffffffffff168273ffffffffffffffffffffffffffffffffffffffff1603611000578060025f828254039250508190555061104a565b805f808473ffffffffffffffffffffffffffffffffffffffff1673ffffffffffffffffffffffffffffffffffffffff1681526020019081526020015f205f82825401925050819055505b8173ffffffffffffffffffffffffffffffffffffffff168373ffffffffffffffffffffffffffffffffffffffff167fddf252ad1be2c89b69c2b068fc378daa952ba7f163c4a11628f55a4df523b3ef836040516110a7919061126f565b60405180910390a3505050565b5f81519050919050565b5f82825260208201905092915050565b5f5b838110156110eb5780820151818401526020810190506110d0565b5f8484015250505050565b5f601f19601f8301169050919050565b5f611110826110b4565b61111a81856110be565b935061112a8185602086016110ce565b611133816110f6565b840191505092915050565b5f6020820190508181035f8301526111568184611106565b905092915050565b5f80fd5b5f73ffffffffffffffffffffffffffffffffffffffff82169050919050565b5f61118b82611162565b9050919050565b61119b81611181565b81146111a5575f80fd5b50565b5f813590506111b681611192565b92915050565b5f819050919050565b6111ce816111bc565b81146111d8575f80fd5b50565b5f813590506111e9816111c5565b92915050565b5f80604083850312156112055761120461115e565b5b5f611212858286016111a8565b9250506020611223858286016111db565b9150509250929050565b5f8115159050919050565b6112418161122d565b82525050565b5f60208201905061125a5f830184611238565b92915050565b611269816111bc565b82525050565b5f6020820190506112825f830184611260565b92915050565b5f805f6060848603121561129f5761129e61115e565b5b5f6112ac868287016111a8565b93505060206112bd868287016111a8565b92505060406112ce868287016111db565b9150509250925092565b5f602082840312156112ed576112ec61115e565b5b5f6112fa848285016111db565b91505092915050565b5f60ff82169050919050565b61131881611303565b82525050565b5f6020820190506113315f83018461130f565b92915050565b5f6020828403121561134c5761134b61115e565b5b5f611359848285016111a8565b91505092915050565b61136b81611181565b82525050565b5f6020820190506113845f830184611362565b92915050565b5f80604083850312156113a05761139f61115e565b5b5f6113ad858286016111a8565b92505060206113be858286016111a8565b9150509250929050565b7f4e487b71000000000000000000000000000000000000000000000000000000005f52602260045260245ffd5b5f600282049050600182168061140c57607f821691505b60208210810361141f5761141e6113c8565b5b50919050565b7f4e487b71000000000000000000000000000000000000000000000000000000005f52601160045260245ffd5b5f61145c826111bc565b9150611467836111bc565b925082820190508082111561147f5761147e611425565b5b92915050565b7f5761697420323420686f757273206265747765656e20636c61696d73000000005f82015250565b5f6114b9601c836110be565b91506114c482611485565b602082019050919050565b5f6020820190508181035f8301526114e6816114ad565b9050919050565b7f46617563657420656d70747900000000000000000000000000000000000000005f82015250565b5f611521600c836110be565b915061152c826114ed565b602082019050919050565b5f6020820190508181035f83015261154e81611515565b9050919050565b5f61155f826111bc565b915061156a836111bc565b925082820390508181111561158257611581611425565b5b92915050565b5f60608201905061159b5f830186611362565b6115a86020830185611260565b6115b56040830184611260565b94935050505056fea2646970667358221220073cea9647349bcdb8e48cd4895f00fa55d0e11e12786d07e90a99bf971dc81f64736f6c63430008140033","linkReferences":{}},"methodIdentifiers":{"DRIP_AMOUNT()":"e98890a7","DRIP_INTERVAL()":"5d8bc6b7","TOTAL_SUPPLY()":"902d55a5","allowance(address,address)":"dd62ed3e","approve(address,uint256)":"095ea7b3","balanceOf(address)":"70a08231","claim()":"4e71d92d","decimals()":"313ce567","lastClaim(address)":"5c16e15e","name()":"06fdde03","owner()":"8da5cb5b","refill(uint256)":"ca9d07ba","renounceOwnership()":"715018a6","symbol()":"95d89b41","timeUntilNextClaim(address)":"92d82dbe","totalSupply()":"18160ddd","transfer(address,uint256)":"a9059cbb","transferFrom(address,address,uint256)":"23b872dd","transferOwnership(address)":"f2fde38b","withdraw(uint256)":"2e1a7d4d"},"id":0}