{"abi":[{"type":"constructor","inputs":[],"stateMutability":"nonpayable"},{"type":"function","name":"DRIP_AMOUNT","inputs":[],"outputs":[{"name":"","type":"uint256","internalType":"uint256"}],"stateMutability":"view"},{"type":"function","name":"DRIP_INTERVAL","inputs":[],"outputs":[{"name":"","type":"uint256","internalType":"uint256"}],"stateMutability":"view"},{"type":"function","name":"OWNER_INITIAL","inputs":[],"outputs":[{"name":"","type":"uint256","internalType":"uint256"}],"stateMutability":"view"},{"type":"function","name":"TOTAL_SUPPLY","inputs":[],"outputs":[{"name":"","type":"uint256","internalType":"uint256"}],"stateMutability":"view"},{"type":"function","name":"allowance","inputs":[{"name":"owner","type":"address","internalType":"address"},{"name":"spender","type":"address","internalType":"address"}],"outputs":[{"name":"","type":"uint256","internalType":"uint256"}],"stateMutability":"view"},{"type":"function","name":"approve","inputs":[{"name":"spender","type":"address","internalType":"address"},{"name":"value","type":"uint256","internalType":"uint256"}],"outputs":[{"name":"","type":"bool","internalType":"bool"}],"stateMutability":"nonpayable"},{"type":"function","name":"balanceOf","inputs":[{"name":"account","type":"address","internalType":"address"}],"outputs":[{"name":"","type":"uint256","internalType":"uint256"}],"stateMutability":"view"},{"type":"function","name":"claim","inputs":[],"outputs":[],"stateMutability":"nonpayable"},{"type":"function","name":"decimals","inputs":[],"outputs":[{"name":"","type":"uint8","internalType":"uint8"}],"stateMutability":"view"},{"type":"function","name":"lastClaim","inputs":[{"name":"","type":"address","internalType":"address"}],"outputs":[{"name":"","type":"uint256","internalType":"uint256"}],"stateMutability":"view"},{"type":"function","name":"name","inputs":[],"outputs":[{"name":"","type":"string","internalType":"string"}],"stateMutability":"view"},{"type":"function","name":"owner","inputs":[],"outputs":[{"name":"","type":"address","internalType":"address"}],"stateMutability":"view"},{"type":"function","name":"ownerClaim","inputs":[{"name":"amount","type":"uint256","internalType":"uint256"}],"outputs":[],"stateMutability":"nonpayable"},{"type":"function","name":"refill","inputs":[{"name":"amount","type":"uint256","internalType":"uint256"}],"outputs":[],"stateMutability":"nonpayable"},{"type":"function","name":"renounceOwnership","inputs":[],"outputs":[],"stateMutability":"nonpayable"},{"type":"function","name":"symbol","inputs":[],"outputs":[{"name":"","type":"string","internalType":"string"}],"stateMutability":"view"},{"type":"function","name":"timeUntilNextClaim","inputs":[{"name":"user","type":"address","internalType":"address"}],"outputs":[{"name":"","type":"uint256","internalType":"uint256"}],"stateMutability":"view"},{"type":"function","name":"totalSupply","inputs":[],"outputs":[{"name":"","type":"uint256","internalType":"uint256"}],"stateMutability":"view"},{"type":"function","name":"transfer","inputs":[{"name":"to","type":"address","internalType":"address"},{"name":"value","type":"uint256","internalType":"uint256"}],"outputs":[{"name":"","type":"bool","internalType":"bool"}],"stateMutability":"nonpayable"},{"type":"function","name":"transferFrom","inputs":[{"name":"from","type":"address","internalType":"address"},{"name":"to","type":"address","internalType":"address"},{"name":"value","type":"uint256","internalType":"uint256"}],"outputs":[{"name":"","type":"bool","internalType":"bool"}],"stateMutability":"nonpayable"},{"type":"function","name":"transferOwnership","inputs":[{"name":"newOwner","type":"address","internalType":"address"}],"outputs":[],"stateMutability":"nonpayable"},{"type":"function","name":"withdraw","inputs":[{"name":"amount","type":"uint256","internalType":"uint256"}],"outputs":[],"stateMutability":"nonpayable"},{"type":"event","name":"Approval","inputs":[{"name":"owner","type":"address","indexed":true,"internalType":"address"},{"name":"spender","type":"address","indexed":true,"internalType":"address"},{"name":"value","type":"uint256","indexed":false,"internalType":"uint256"}],"anonymous":false},{"type":"event","name":"Claimed","inputs":[{"name":"user","type":"address","indexed":true,"internalType":"address"},{"name":"amount","type":"uint256","indexed":false,"internalType":"uint256"}],"anonymous":false},{"type":"event","name":"OwnershipTransferred","inputs":[{"name":"previousOwner","type":"address","indexed":true,"internalType":"address"},{"name":"newOwner","type":"address","indexed":true,"internalType":"address"}],"anonymous":false},{"type":"event","name":"Transfer","inputs":[{"name":"from","type":"address","indexed":true,"internalType":"address"},{"name":"to","type":"address","indexed":true,"internalType":"address"},{"name":"value","type":"uint256","indexed":false,"internalType":"uint256"}],"anonymous":false},{"type":"error","name":"ERC20InsufficientAllowance","inputs":[{"name":"spender","type":"address","internalType":"address"},{"name":"allowance","type":"uint256","internalType":"uint256"},{"name":"needed","type":"uint256","internalType":"uint256"}]},{"type":"error","name":"ERC20InsufficientBalance","inputs":[{"name":"sender","type":"address","internalType":"address"},{"name":"balance","type":"uint256","internalType":"uint256"},{"name":"needed","type":"uint256","internalType":"uint256"}]},{"type":"error","name":"ERC20InvalidApprover","inputs":[{"name":"approver","type":"address","internalType":"address"}]},{"type":"error","name":"ERC20InvalidReceiver","inputs":[{"name":"receiver","type":"address","internalType":"address"}]},{"type":"error","name":"ERC20InvalidSender","inputs":[{"name":"sender","type":"address","internalType":"address"}]},{"type":"error","name":"ERC20InvalidSpender","inputs":[{"name":"spender","type":"address","internalType":"address"}]},{"type":"error","name":"OwnableInvalidOwner","inputs":[{"name":"owner","type":"address","internalType":"address"}]},{"type":"error","name":"OwnableUnauthorizedAccount","inputs":[{"name":"account","type":"address","internalType":"address"}]}],"bytecode":{"object":"0x608060405234801562000010575f80fd5b50336040518060400160405280600881526020017f546573742058454e0000000000000000000000000000000000000000000000008152506040518060400160405280600481526020017f7458454e0000000000000000000000000000000000000000000000000000000081525081600390816200008f91906200075d565b508060049081620000a191906200075d565b5050505f73ffffffffffffffffffffffffffffffffffffffff168173ffffffffffffffffffffffffffffffffffffffff160362000117575f6040517f1e4fbdf70000000000000000000000000000000000000000000000000000000081526004016200010e919062000884565b60405180910390fd5b62000128816200018860201b60201c565b5062000148336c0c9f2c9cd04674edea400000006200024b60201b60201c565b62000182306c0c9f2c9cd04674edea400000006d0d75be933a1b22b1b6ce40000000620001769190620008cc565b6200024b60201b60201c565b620009a7565b5f60055f9054906101000a900473ffffffffffffffffffffffffffffffffffffffff1690508160055f6101000a81548173ffffffffffffffffffffffffffffffffffffffff021916908373ffffffffffffffffffffffffffffffffffffffff1602179055508173ffffffffffffffffffffffffffffffffffffffff168173ffffffffffffffffffffffffffffffffffffffff167f8be0079c531659141344cd1fd0a4f28419497f9722a3daafe3b4186f6b6457e060405160405180910390a35050565b5f73ffffffffffffffffffffffffffffffffffffffff168273ffffffffffffffffffffffffffffffffffffffff1603620002be575f6040517fec442f05000000000000000000000000000000000000000000000000000000008152600401620002b5919062000884565b60405180910390fd5b620002d15f8383620002d560201b60201c565b5050565b5f73ffffffffffffffffffffffffffffffffffffffff168373ffffffffffffffffffffffffffffffffffffffff160362000329578060025f8282546200031c919062000906565b92505081905550620003fa565b5f805f8573ffffffffffffffffffffffffffffffffffffffff1673ffffffffffffffffffffffffffffffffffffffff1681526020019081526020015f2054905081811015620003b5578381836040517fe450d38c000000000000000000000000000000000000000000000000000000008152600401620003ac9392919062000951565b60405180910390fd5b8181035f808673ffffffffffffffffffffffffffffffffffffffff1673ffffffffffffffffffffffffffffffffffffffff1681526020019081526020015f2081905550505b5f73ffffffffffffffffffffffffffffffffffffffff168273ffffffffffffffffffffffffffffffffffffffff160362000443578060025f82825403925050819055506200048d565b805f808473ffffffffffffffffffffffffffffffffffffffff1673ffffffffffffffffffffffffffffffffffffffff1681526020019081526020015f205f82825401925050819055505b8173ffffffffffffffffffffffffffffffffffffffff168373ffffffffffffffffffffffffffffffffffffffff167fddf252ad1be2c89b69c2b068fc378daa952ba7f163c4a11628f55a4df523b3ef83604051620004ec91906200098c565b60405180910390a3505050565b5f81519050919050565b7f4e487b71000000000000000000000000000000000000000000000000000000005f52604160045260245ffd5b7f4e487b71000000000000000000000000000000000000000000000000000000005f52602260045260245ffd5b5f60028204905060018216806200057557607f821691505b6020821081036200058b576200058a62000530565b5b50919050565b5f819050815f5260205f209050919050565b5f6020601f8301049050919050565b5f82821b905092915050565b5f60088302620005ef7fffffffffffffffffffffffffffffffffffffffffffffffffffffffffffffffff82620005b2565b620005fb8683620005b2565b95508019841693508086168417925050509392505050565b5f819050919050565b5f819050919050565b5f620006456200063f620006398462000613565b6200061c565b62000613565b9050919050565b5f819050919050565b620006608362000625565b620006786200066f826200064c565b848454620005be565b825550505050565b5f90565b6200068e62000680565b6200069b81848462000655565b505050565b5b81811015620006c257620006b65f8262000684565b600181019050620006a1565b5050565b601f8211156200071157620006db8162000591565b620006e684620005a3565b81016020851015620006f6578190505b6200070e6200070585620005a3565b830182620006a0565b50505b505050565b5f82821c905092915050565b5f620007335f198460080262000716565b1980831691505092915050565b5f6200074d838362000722565b9150826002028217905092915050565b6200076882620004f9565b67ffffffffffffffff81111562000784576200078362000503565b5b6200079082546200055d565b6200079d828285620006c6565b5f60209050601f831160018114620007d3575f8415620007be578287015190505b620007ca858262000740565b86555062000839565b601f198416620007e38662000591565b5f5b828110156200080c57848901518255600182019150602085019450602081019050620007e5565b868310156200082c578489015162000828601f89168262000722565b8355505b6001600288020188555050505b505050505050565b5f73ffffffffffffffffffffffffffffffffffffffff82169050919050565b5f6200086c8262000841565b9050919050565b6200087e8162000860565b82525050565b5f602082019050620008995f83018462000873565b92915050565b7f4e487b71000000000000000000000000000000000000000000000000000000005f52601160045260245ffd5b5f620008d88262000613565b9150620008e58362000613565b92508282039050818111156200090057620008ff6200089f565b5b92915050565b5f620009128262000613565b91506200091f8362000613565b92508282019050808211156200093a57620009396200089f565b5b92915050565b6200094b8162000613565b82525050565b5f606082019050620009665f83018662000873565b62000975602083018562000940565b62000984604083018462000940565b949350505050565b5f602082019050620009a15f83018462000940565b92915050565b6116c480620009b55f395ff3fe608060405234801561000f575f80fd5b5060043610610140575f3560e01c8063715018a6116100b6578063a9059cbb1161007a578063a9059cbb14610352578063ca9d07ba14610382578063cdc999331461039e578063dd62ed3e146103bc578063e98890a7146103ec578063f2fde38b1461040a57610140565b8063715018a6146102be5780638da5cb5b146102c8578063902d55a5146102e657806392d82dbe1461030457806395d89b411461033457610140565b8063313ce56711610108578063313ce567146101fc578063434f48c41461021a5780634e71d92d146102365780635c16e15e146102405780635d8bc6b71461027057806370a082311461028e57610140565b806306fdde0314610144578063095ea7b31461016257806318160ddd1461019257806323b872dd146101b05780632e1a7d4d146101e0575b5f80fd5b61014c610426565b604051610159919061120f565b60405180910390f35b61017c600480360381019061017791906112c0565b6104b6565b6040516101899190611318565b60405180910390f35b61019a6104d8565b6040516101a79190611340565b60405180910390f35b6101ca60048036038101906101c59190611359565b6104e1565b6040516101d79190611318565b60405180910390f35b6101fa60048036038101906101f591906113a9565b61050f565b005b610204610525565b60405161021191906113ef565b60405180910390f35b610234600480360381019061022f91906113a9565b61052d565b005b61023e61058e565b005b61025a60048036038101906102559190611408565b610728565b6040516102679190611340565b60405180910390f35b61027861073d565b6040516102859190611340565b60405180910390f35b6102a860048036038101906102a39190611408565b610744565b6040516102b59190611340565b60405180910390f35b6102c6610789565b005b6102d061079c565b6040516102dd9190611442565b60405180910390f35b6102ee6107c4565b6040516102fb9190611340565b60405180910390f35b61031e60048036038101906103199190611408565b6107d6565b60405161032b9190611340565b60405180910390f35b61033c61084b565b604051610349919061120f565b60405180910390f35b61036c600480360381019061036791906112c0565b6108db565b6040516103799190611318565b60405180910390f35b61039c600480360381019061039791906113a9565b6108fd565b005b6103a6610912565b6040516103b39190611340565b60405180910390f35b6103d660048036038101906103d1919061145b565b610923565b6040516103e39190611340565b60405180910390f35b6103f46109a5565b6040516104019190611340565b60405180910390f35b610424600480360381019061041f9190611408565b6109b5565b005b606060038054610435906114c6565b80601f0160208091040260200160405190810160405280929190818152602001828054610461906114c6565b80156104ac5780601f10610483576101008083540402835291602001916104ac565b820191905f5260205f20905b81548152906001019060200180831161048f57829003601f168201915b5050505050905090565b5f806104c0610a39565b90506104cd818585610a40565b600191505092915050565b5f600254905090565b5f806104eb610a39565b90506104f8858285610a52565b610503858585610ae4565b60019150509392505050565b610517610bd4565b610522303383610ae4565b50565b5f6012905090565b610535610bd4565b8061053f30610744565b1015610580576040517f08c379a000000000000000000000000000000000000000000000000000000000815260040161057790611540565b60405180910390fd5b61058b303383610ae4565b50565b6201518060065f3373ffffffffffffffffffffffffffffffffffffffff1673ffffffffffffffffffffffffffffffffffffffff1681526020019081526020015f20546105da919061158b565b42101561061c576040517f08c379a000000000000000000000000000000000000000000000000000000000815260040161061390611608565b60405180910390fd5b6b033b2e3c9fd0803ce800000061063230610744565b1015610673576040517f08c379a000000000000000000000000000000000000000000000000000000000815260040161066a90611540565b60405180910390fd5b4260065f3373ffffffffffffffffffffffffffffffffffffffff1673ffffffffffffffffffffffffffffffffffffffff1681526020019081526020015f20819055506106cc30336b033b2e3c9fd0803ce8000000610ae4565b3373ffffffffffffffffffffffffffffffffffffffff167fd8138f8a3f377c5259ca548e70e4c2de94f129f5a11036a15b69513cba2b426a6b033b2e3c9fd0803ce800000060405161071e9190611340565b60405180910390a2565b6006602052805f5260405f205f915090505481565b6201518081565b5f805f8373ffffffffffffffffffffffffffffffffffffffff1673ffffffffffffffffffffffffffffffffffffffff1681526020019081526020015f20549050919050565b610791610bd4565b61079a5f610c5b565b565b5f60055f9054906101000a900473ffffffffffffffffffffffffffffffffffffffff16905090565b6d0d75be933a1b22b1b6ce4000000081565b5f806201518060065f8573ffffffffffffffffffffffffffffffffffffffff1673ffffffffffffffffffffffffffffffffffffffff1681526020019081526020015f2054610824919061158b565b9050804210610836575f915050610846565b42816108429190611626565b9150505b919050565b60606004805461085a906114c6565b80601f0160208091040260200160405190810160405280929190818152602001828054610886906114c6565b80156108d15780601f106108a8576101008083540402835291602001916108d1565b820191905f5260205f20905b8154815290600101906020018083116108b457829003601f168201915b5050505050905090565b5f806108e5610a39565b90506108f2818585610ae4565b600191505092915050565b610905610bd4565b61090f3082610d1e565b50565b6c0c9f2c9cd04674edea4000000081565b5f60015f8473ffffffffffffffffffffffffffffffffffffffff1673ffffffffffffffffffffffffffffffffffffffff1681526020019081526020015f205f8373ffffffffffffffffffffffffffffffffffffffff1673ffffffffffffffffffffffffffffffffffffffff1681526020019081526020015f2054905092915050565b6b033b2e3c9fd0803ce800000081565b6109bd610bd4565b5f73ffffffffffffffffffffffffffffffffffffffff168173ffffffffffffffffffffffffffffffffffffffff1603610a2d575f6040517f1e4fbdf7000000000000000000000000000000000000000000000000000000008152600401610a249190611442565b60405180910390fd5b610a3681610c5b565b50565b5f33905090565b610a4d8383836001610d9d565b505050565b5f610a5d8484610923565b90507fffffffffffffffffffffffffffffffffffffffffffffffffffffffffffffffff8114610ade5781811015610acf578281836040517ffb8f41b2000000000000000000000000000000000000000000000000000000008152600401610ac693929190611659565b60405180910390fd5b610add84848484035f610d9d565b5b50505050565b5f73ffffffffffffffffffffffffffffffffffffffff168373ffffffffffffffffffffffffffffffffffffffff1603610b54575f6040517f96c6fd1e000000000000000000000000000000000000000000000000000000008152600401610b4b9190611442565b60405180910390fd5b5f73ffffffffffffffffffffffffffffffffffffffff168273ffffffffffffffffffffffffffffffffffffffff1603610bc4575f6040517fec442f05000000000000000000000000000000000000000000000000000000008152600401610bbb9190611442565b60405180910390fd5b610bcf838383610f6c565b505050565b610bdc610a39565b73ffffffffffffffffffffffffffffffffffffffff16610bfa61079c565b73ffffffffffffffffffffffffffffffffffffffff1614610c5957610c1d610a39565b6040517f118cdaa7000000000000000000000000000000000000000000000000000000008152600401610c509190611442565b60405180910390fd5b565b5f60055f9054906101000a900473ffffffffffffffffffffffffffffffffffffffff1690508160055f6101000a81548173ffffffffffffffffffffffffffffffffffffffff021916908373ffffffffffffffffffffffffffffffffffffffff1602179055508173ffffffffffffffffffffffffffffffffffffffff168173ffffffffffffffffffffffffffffffffffffffff167f8be0079c531659141344cd1fd0a4f28419497f9722a3daafe3b4186f6b6457e060405160405180910390a35050565b5f73ffffffffffffffffffffffffffffffffffffffff168273ffffffffffffffffffffffffffffffffffffffff1603610d8e575f6040517fec442f05000000000000000000000000000000000000000000000000000000008152600401610d859190611442565b60405180910390fd5b610d995f8383610f6c565b5050565b5f73ffffffffffffffffffffffffffffffffffffffff168473ffffffffffffffffffffffffffffffffffffffff1603610e0d575f6040517fe602df05000000000000000000000000000000000000000000000000000000008152600401610e049190611442565b60405180910390fd5b5f73ffffffffffffffffffffffffffffffffffffffff168373ffffffffffffffffffffffffffffffffffffffff1603610e7d575f6040517f94280d62000000000000000000000000000000000000000000000000000000008152600401610e749190611442565b60405180910390fd5b8160015f8673ffffffffffffffffffffffffffffffffffffffff1673ffffffffffffffffffffffffffffffffffffffff1681526020019081526020015f205f8573ffffffffffffffffffffffffffffffffffffffff1673ffffffffffffffffffffffffffffffffffffffff1681526020019081526020015f20819055508015610f66578273ffffffffffffffffffffffffffffffffffffffff168473ffffffffffffffffffffffffffffffffffffffff167f8c5be1e5ebec7d5bd14f71427d1e84f3dd0314c0f7b2291e5b200ac8c7c3b92584604051610f5d9190611340565b60405180910390a35b50505050565b5f73ffffffffffffffffffffffffffffffffffffffff168373ffffffffffffffffffffffffffffffffffffffff1603610fbc578060025f828254610fb0919061158b565b9250508190555061108a565b5f805f8573ffffffffffffffffffffffffffffffffffffffff1673ffffffffffffffffffffffffffffffffffffffff1681526020019081526020015f2054905081811015611045578381836040517fe450d38c00000000000000000000000000000000000000000000000000000000815260040161103c93929190611659565b60405180910390fd5b8181035f808673ffffffffffffffffffffffffffffffffffffffff1673ffffffffffffffffffffffffffffffffffffffff1681526020019081526020015f2081905550505b5f73ffffffffffffffffffffffffffffffffffffffff168273ffffffffffffffffffffffffffffffffffffffff16036110d1578060025f828254039250508190555061111b565b805f808473ffffffffffffffffffffffffffffffffffffffff1673ffffffffffffffffffffffffffffffffffffffff1681526020019081526020015f205f82825401925050819055505b8173ffffffffffffffffffffffffffffffffffffffff168373ffffffffffffffffffffffffffffffffffffffff167fddf252ad1be2c89b69c2b068fc378daa952ba7f163c4a11628f55a4df523b3ef836040516111789190611340565b60405180910390a3505050565b5f81519050919050565b5f82825260208201905092915050565b5f5b838110156111bc5780820151818401526020810190506111a1565b5f8484015250505050565b5f601f19601f8301169050919050565b5f6111e182611185565b6111eb818561118f565b93506111fb81856020860161119f565b611204816111c7565b840191505092915050565b5f6020820190508181035f83015261122781846111d7565b905092915050565b5f80fd5b5f73ffffffffffffffffffffffffffffffffffffffff82169050919050565b5f61125c82611233565b9050919050565b61126c81611252565b8114611276575f80fd5b50565b5f8135905061128781611263565b92915050565b5f819050919050565b61129f8161128d565b81146112a9575f80fd5b50565b5f813590506112ba81611296565b92915050565b5f80604083850312156112d6576112d561122f565b5b5f6112e385828601611279565b92505060206112f4858286016112ac565b9150509250929050565b5f8115159050919050565b611312816112fe565b82525050565b5f60208201905061132b5f830184611309565b92915050565b61133a8161128d565b82525050565b5f6020820190506113535f830184611331565b92915050565b5f805f606084860312156113705761136f61122f565b5b5f61137d86828701611279565b935050602061138e86828701611279565b925050604061139f868287016112ac565b9150509250925092565b5f602082840312156113be576113bd61122f565b5b5f6113cb848285016112ac565b91505092915050565b5f60ff82169050919050565b6113e9816113d4565b82525050565b5f6020820190506114025f8301846113e0565b92915050565b5f6020828403121561141d5761141c61122f565b5b5f61142a84828501611279565b91505092915050565b61143c81611252565b82525050565b5f6020820190506114555f830184611433565b92915050565b5f80604083850312156114715761147061122f565b5b5f61147e85828601611279565b925050602061148f85828601611279565b9150509250929050565b7f4e487b71000000000000000000000000000000000000000000000000000000005f52602260045260245ffd5b5f60028204905060018216806114dd57607f821691505b6020821081036114f0576114ef611499565b5b50919050565b7f46617563657420656d70747900000000000000000000000000000000000000005f82015250565b5f61152a600c8361118f565b9150611535826114f6565b602082019050919050565b5f6020820190508181035f8301526115578161151e565b9050919050565b7f4e487b71000000000000000000000000000000000000000000000000000000005f52601160045260245ffd5b5f6115958261128d565b91506115a08361128d565b92508282019050808211156115b8576115b761155e565b5b92915050565b7f5761697420323420686f757273206265747765656e20636c61696d73000000005f82015250565b5f6115f2601c8361118f565b91506115fd826115be565b602082019050919050565b5f6020820190508181035f83015261161f816115e6565b9050919050565b5f6116308261128d565b915061163b8361128d565b92508282039050818111156116535761165261155e565b5b92915050565b5f60608201905061166c5f830186611433565b6116796020830185611331565b6116866040830184611331565b94935050505056fea26469706673582212200cd2d3374a1b3c6c51b16b08a4dca9fb13fae2d6704bb6dde7f46425ed3a75ea64736f6c63430008140033","linkReferences":{}},"methodIdentifiers":{"DRIP_AMOUNT()":"e98890a7","DRIP_INTERVAL()":"5d8bc6b7","OWNER_INITIAL()":"cdc99933","TOTAL_SUPPLY()":"902d55a5","allowance(address,address)":"dd62ed3e","approve(address,uint256)":"095ea7b3","balanceOf(address)":"70a08231","claim()":"4e71d92d","decimals()":"313ce567","lastClaim(address)":"5c16e15e","name()":"06fdde03","owner()":"8da5cb5b","ownerClaim(uint256)":"434f48c4","refill(uint256)":"ca9d07ba","renounceOwnership()":"715018a6","symbol()":"95d89b41","timeUntilNextClaim(address)":"92d82dbe","totalSupply()":"18160ddd","transfer(address,uint256)":"a9059cbb","transferFrom(address,address,uint256)":"23b872dd","transferOwnership(address)":"f2fde38b","withdraw(uint256)":"2e1a7d4d"},"id":1}