{
  "_format": "hh-sol-artifact-1",
  "contractName": "TestXEN",
  "sourceName": "contracts/TestXEN.sol",
  "abi": [
    {
      "inputs": [],
      "stateMutability": "nonpayable",
      "type": "constructor"
    },
    {
      "inputs": [
        {
          "internalType": "address",
          "name": "spender",
          "type": "address"
        },
        {
          "internalType": "uint256",
          "name": "allowance",
          "type": "uint256"
        },
        {
          "internalType": "uint256",
          "name": "needed",
          "type": "uint256"
        }
      ],
      "name": "ERC20InsufficientAllowance",
      "type": "error"
    },
    {
      "inputs": [
        {
          "internalType": "address",
          "name": "sender",
          "type": "address"
        },
        {
          "internalType": "uint256",
          "name": "balance",
          "type": "uint256"
        },
        {
          "internalType": "uint256",
          "name": "needed",
          "type": "uint256"
        }
      ],
      "name": "ERC20InsufficientBalance",
      "type": "error"
    },
    {
      "inputs": [
        {
          "internalType": "address",
          "name": "approver",
          "type": "address"
        }
      ],
      "name": "ERC20InvalidApprover",
      "type": "error"
    },
    {
      "inputs": [
        {
          "internalType": "address",
          "name": "receiver",
          "type": "address"
        }
      ],
      "name": "ERC20InvalidReceiver",
      "type": "error"
    },
    {
      "inputs": [
        {
          "internalType": "address",
          "name": "sender",
          "type": "address"
        }
      ],
      "name": "ERC20InvalidSender",
      "type": "error"
    },
    {
      "inputs": [
        {
          "internalType": "address",
          "name": "spender",
          "type": "address"
        }
      ],
      "name": "ERC20InvalidSpender",
      "type": "error"
    },
    {
      "inputs": [
        {
          "internalType": "address",
          "name": "owner",
          "type": "address"
        }
      ],
      "name": "OwnableInvalidOwner",
      "type": "error"
    },
    {
      "inputs": [
        {
          "internalType": "address",
          "name": "account",
          "type": "address"
        }
      ],
      "name": "OwnableUnauthorizedAccount",
      "type": "error"
    },
    {
      "anonymous": false,
      "inputs": [
        {
          "indexed": true,
          "internalType": "address",
          "name": "owner",
          "type": "address"
        },
        {
          "indexed": true,
          "internalType": "address",
          "name": "spender",
          "type": "address"
        },
        {
          "indexed": false,
          "internalType": "uint256",
          "name": "value",
          "type": "uint256"
        }
      ],
      "name": "Approval",
      "type": "event"
    },
    {
      "anonymous": false,
      "inputs": [
        {
          "indexed": true,
          "internalType": "address",
          "name": "user",
          "type": "address"
        },
        {
          "indexed": false,
          "internalType": "uint256",
          "name": "amount",
          "type": "uint256"
        }
      ],
      "name": "Claimed",
      "type": "event"
    },
    {
      "anonymous": false,
      "inputs": [
        {
          "indexed": true,
          "internalType": "address",
          "name": "previousOwner",
          "type": "address"
        },
        {
          "indexed": true,
          "internalType": "address",
          "name": "newOwner",
          "type": "address"
        }
      ],
      "name": "OwnershipTransferred",
      "type": "event"
    },
    {
      "anonymous": false,
      "inputs": [
        {
          "indexed": true,
          "internalType": "address",
          "name": "from",
          "type": "address"
        },
        {
          "indexed": true,
          "internalType": "address",
          "name": "to",
          "type": "address"
        },
        {
          "indexed": false,
          "internalType": "uint256",
          "name": "value",
          "type": "uint256"
        }
      ],
      "name": "Transfer",
      "type": "event"
    },
    {
      "inputs": [],
      "name": "DRIP_AMOUNT",
      "outputs": [
        {
          "internalType": "uint256",
          "name": "",
          "type": "uint256"
        }
      ],
      "stateMutability": "view",
      "type": "function"
    },
    {
      "inputs": [],
      "name": "DRIP_INTERVAL",
      "outputs": [
        {
          "internalType": "uint256",
          "name": "",
          "type": "uint256"
        }
      ],
      "stateMutability": "view",
      "type": "function"
    },
    {
      "inputs": [],
      "name": "OWNER_INITIAL",
      "outputs": [
        {
          "internalType": "uint256",
          "name": "",
          "type": "uint256"
        }
      ],
      "stateMutability": "view",
      "type": "function"
    },
    {
      "inputs": [],
      "name": "TOTAL_SUPPLY",
      "outputs": [
        {
          "internalType": "uint256",
          "name": "",
          "type": "uint256"
        }
      ],
      "stateMutability": "view",
      "type": "function"
    },
    {
      "inputs": [
        {
          "internalType": "address",
          "name": "owner",
          "type": "address"
        },
        {
          "internalType": "address",
          "name": "spender",
          "type": "address"
        }
      ],
      "name": "allowance",
      "outputs": [
        {
          "internalType": "uint256",
          "name": "",
          "type": "uint256"
        }
      ],
      "stateMutability": "view",
      "type": "function"
    },
    {
      "inputs": [
        {
          "internalType": "address",
          "name": "spender",
          "type": "address"
        },
        {
          "internalType": "uint256",
          "name": "value",
          "type": "uint256"
        }
      ],
      "name": "approve",
      "outputs": [
        {
          "internalType": "bool",
          "name": "",
          "type": "bool"
        }
      ],
      "stateMutability": "nonpayable",
      "type": "function"
    },
    {
      "inputs": [
        {
          "internalType": "address",
          "name": "account",
          "type": "address"
        }
      ],
      "name": "balanceOf",
      "outputs": [
        {
          "internalType": "uint256",
          "name": "",
          "type": "uint256"
        }
      ],
      "stateMutability": "view",
      "type": "function"
    },
    {
      "inputs": [],
      "name": "claim",
      "outputs": [],
      "stateMutability": "nonpayable",
      "type": "function"
    },
    {
      "inputs": [],
      "name": "decimals",
      "outputs": [
        {
          "internalType": "uint8",
          "name": "",
          "type": "uint8"
        }
      ],
      "stateMutability": "view",
      "type": "function"
    },
    {
      "inputs": [
        {
          "internalType": "address",
          "name": "",
          "type": "address"
        }
      ],
      "name": "lastClaim",
      "outputs": [
        {
          "internalType": "uint256",
          "name": "",
          "type": "uint256"
        }
      ],
      "stateMutability": "view",
      "type": "function"
    },
    {
      "inputs": [],
      "name": "name",
      "outputs": [
        {
          "internalType": "string",
          "name": "",
          "type": "string"
        }
      ],
      "stateMutability": "view",
      "type": "function"
    },
    {
      "inputs": [],
      "name": "owner",
      "outputs": [
        {
          "internalType": "address",
          "name": "",
          "type": "address"
        }
      ],
      "stateMutability": "view",
      "type": "function"
    },
    {
      "inputs": [
        {
          "internalType": "uint256",
          "name": "amount",
          "type": "uint256"
        }
      ],
      "name": "ownerClaim",
      "outputs": [],
      "stateMutability": "nonpayable",
      "type": "function"
    },
    {
      "inputs": [
        {
          "internalType": "uint256",
          "name": "amount",
          "type": "uint256"
        }
      ],
      "name": "refill",
      "outputs": [],
      "stateMutability": "nonpayable",
      "type": "function"
    },
    {
      "inputs": [],
      "name": "renounceOwnership",
      "outputs": [],
      "stateMutability": "nonpayable",
      "type": "function"
    },
    {
      "inputs": [],
      "name": "symbol",
      "outputs": [
        {
          "internalType": "string",
          "name": "",
          "type": "string"
        }
      ],
      "stateMutability": "view",
      "type": "function"
    },
    {
      "inputs": [
        {
          "internalType": "address",
          "name": "user",
          "type": "address"
        }
      ],
      "name": "timeUntilNextClaim",
      "outputs": [
        {
          "internalType": "uint256",
          "name": "",
          "type": "uint256"
        }
      ],
      "stateMutability": "view",
      "type": "function"
    },
    {
      "inputs": [],
      "name": "totalSupply",
      "outputs": [
        {
          "internalType": "uint256",
          "name": "",
          "type": "uint256"
        }
      ],
      "stateMutability": "view",
      "type": "function"
    },
    {
      "inputs": [
        {
          "internalType": "address",
          "name": "to",
          "type": "address"
        },
        {
          "internalType": "uint256",
          "name": "value",
          "type": "uint256"
        }
      ],
      "name": "transfer",
      "outputs": [
        {
          "internalType": "bool",
          "name": "",
          "type": "bool"
        }
      ],
      "stateMutability": "nonpayable",
      "type": "function"
    },
    {
      "inputs": [
        {
          "internalType": "address",
          "name": "from",
          "type": "address"
        },
        {
          "internalType": "address",
          "name": "to",
          "type": "address"
        },
        {
          "internalType": "uint256",
          "name": "value",
          "type": "uint256"
        }
      ],
      "name": "transferFrom",
      "outputs": [
        {
          "internalType": "bool",
          "name": "",
          "type": "bool"
        }
      ],
      "stateMutability": "nonpayable",
      "type": "function"
    },
    {
      "inputs": [
        {
          "internalType": "address",
          "name": "newOwner",
          "type": "address"
        }
      ],
      "name": "transferOwnership",
      "outputs": [],
      "stateMutability": "nonpayable",
      "type": "function"
    },
    {
      "inputs": [
        {
          "internalType": "uint256",
          "name": "amount",
          "type": "uint256"
        }
      ],
      "name": "withdraw",
      "outputs": [],
      "stateMutability": "nonpayable",
      "type": "function"
    }
  ],
  "bytecode": "0x608060405234801561001057600080fd5b5033604051806040016040528060088152602001672a32b9ba102c22a760c11b815250604051806040016040528060048152602001633a2c22a760e11b815250816003908161005f919061034b565b50600461006c828261034b565b5050506001600160a01b0381166100a2576000604051631e4fbdf760e01b81526004016100999190610409565b60405180910390fd5b6100ab816100f6565b506100c3336c0c9f2c9cd04674edea40000000610148565b6100f1306100ec6c0c9f2c9cd04674edea400000006d0d75be933a1b22b1b6ce40000000610433565b610148565b61045f565b600580546001600160a01b038381166001600160a01b0319831681179093556040519116919082907f8be0079c531659141344cd1fd0a4f28419497f9722a3daafe3b4186f6b6457e090600090a35050565b6001600160a01b03821661017257600060405163ec442f0560e01b81526004016100999190610409565b61017e60008383610182565b5050565b6001600160a01b0383166101ad5780600260008282546101a2919061044c565b9091555061021f9050565b6001600160a01b038316600090815260208190526040902054818110156102005760405163391434e360e21b81526001600160a01b03851660048201526024810182905260448101839052606401610099565b6001600160a01b03841660009081526020819052604090209082900390555b6001600160a01b03821661023b5760028054829003905561025a565b6001600160a01b03821660009081526020819052604090208054820190555b816001600160a01b0316836001600160a01b03167fddf252ad1be2c89b69c2b068fc378daa952ba7f163c4a11628f55a4df523b3ef8360405161029f91815260200190565b60405180910390a3505050565b634e487b7160e01b600052604160045260246000fd5b600181811c908216806102d657607f821691505b6020821081036102f657634e487b7160e01b600052602260045260246000fd5b50919050565b601f82111561034657806000526020600020601f840160051c810160208510156103235750805b601f840160051c820191505b81811015610343576000815560010161032f565b50505b505050565b81516001600160401b03811115610364576103646102ac565b6103788161037284546102c2565b846102fc565b6020601f8211600181146103ac57600083156103945750848201515b600019600385901b1c1916600184901b178455610343565b600084815260208120601f198516915b828110156103dc57878501518255602094850194600190920191016103bc565b50848210156103fa5786840151600019600387901b60f8161c191681555b50505050600190811b01905550565b6001600160a01b0391909116815260200190565b634e487b7160e01b600052601160045260246000fd5b818103818111156104465761044661041d565b92915050565b808201808211156104465761044661041d565b610bac8061046e6000396000f3fe608060405234801561001057600080fd5b50600436106101125760003560e01c806306fdde0314610117578063095ea7b31461013557806318160ddd1461015857806323b872dd1461016a5780632e1a7d4d1461017d578063313ce56714610192578063434f48c4146101a15780634e71d92d146101b45780635c16e15e146101bc5780635d8bc6b7146101dc57806370a08231146101e6578063715018a6146101f95780638da5cb5b14610201578063902d55a51461021657806392d82dbe1461022a57806395d89b411461023d578063a9059cbb14610245578063ca9d07ba14610258578063cdc999331461026b578063dd62ed3e1461027e578063e98890a714610291578063f2fde38b146102a3575b600080fd5b61011f6102b6565b60405161012c919061096d565b60405180910390f35b6101486101433660046109d7565b610348565b604051901515815260200161012c565b6002545b60405190815260200161012c565b610148610178366004610a01565b610362565b61019061018b366004610a3e565b610386565b005b6040516012815260200161012c565b6101906101af366004610a3e565b61039c565b6101906103d5565b61015c6101ca366004610a57565b60066020526000908152604090205481565b61015c6201518081565b61015c6101f4366004610a57565b6104df565b6101906104fa565b61020961050e565b60405161012c9190610a72565b61015c6935d6fa4ce86c8ac6db39601e1b81565b61015c610238366004610a57565b61051d565b61011f610569565b6101486102533660046109d7565b610578565b610190610266366004610a3e565b610586565b61015c68327cb2734119d3b7a9601e1b81565b61015c61028c366004610a86565b610598565b61015c676765c793fa10079d601b1b81565b6101906102b1366004610a57565b6105c3565b6060600380546102c590610ab9565b80601f01602080910402602001604051908101604052809291908181526020018280546102f190610ab9565b801561033e5780601f106103135761010080835404028352916020019161033e565b820191906000526020600020905b81548152906001019060200180831161032157829003601f168201915b5050505050905090565b6000336103568185856105fe565b60019150505b92915050565b600033610370858285610610565b61037b858585610664565b506001949350505050565b61038e6106c3565b610399303383610664565b50565b6103a46106c3565b806103ae306104df565b101561038e5760405162461bcd60e51b81526004016103cc90610af3565b60405180910390fd5b336000908152600660205260409020546103f3906201518090610b2f565b4210156104415760405162461bcd60e51b815260206004820152601c60248201527b5761697420323420686f757273206265747765656e20636c61696d7360201b60448201526064016103cc565b676765c793fa10079d601b1b610456306104df565b10156104745760405162461bcd60e51b81526004016103cc90610af3565b33600081815260066020526040902042905561049d903090676765c793fa10079d601b1b610664565b604051676765c793fa10079d601b1b815233907fd8138f8a3f377c5259ca548e70e4c2de94f129f5a11036a15b69513cba2b426a9060200160405180910390a2565b6001600160a01b031660009081526020819052604090205490565b6105026106c3565b61050c60006106f5565b565b6005546001600160a01b031690565b6001600160a01b0381166000908152600660205260408120548190610546906201518090610b2f565b90508042106105585750600092915050565b6105624282610b42565b9392505050565b6060600480546102c590610ab9565b600033610356818585610664565b61058e6106c3565b6103993082610747565b6001600160a01b03918216600090815260016020908152604080832093909416825291909152205490565b6105cb6106c3565b6001600160a01b0381166105f5576000604051631e4fbdf760e01b81526004016103cc9190610a72565b610399816106f5565b61060b8383836001610781565b505050565b600061061c8484610598565b905060001981101561065e578181101561064f57828183604051637dc7a0d960e11b81526004016103cc93929190610b55565b61065e84848484036000610781565b50505050565b6001600160a01b03831661068e576000604051634b637e8f60e11b81526004016103cc9190610a72565b6001600160a01b0382166106b857600060405163ec442f0560e01b81526004016103cc9190610a72565b61060b838383610856565b336106cc61050e565b6001600160a01b03161461050c573360405163118cdaa760e01b81526004016103cc9190610a72565b600580546001600160a01b038381166001600160a01b0319831681179093556040519116919082907f8be0079c531659141344cd1fd0a4f28419497f9722a3daafe3b4186f6b6457e090600090a35050565b6001600160a01b03821661077157600060405163ec442f0560e01b81526004016103cc9190610a72565b61077d60008383610856565b5050565b6001600160a01b0384166107ab57600060405163e602df0560e01b81526004016103cc9190610a72565b6001600160a01b0383166107d5576000604051634a1406b160e11b81526004016103cc9190610a72565b6001600160a01b038085166000908152600160209081526040808320938716835292905220829055801561065e57826001600160a01b0316846001600160a01b03167f8c5be1e5ebec7d5bd14f71427d1e84f3dd0314c0f7b2291e5b200ac8c7c3b9258460405161084891815260200190565b60405180910390a350505050565b6001600160a01b0383166108815780600260008282546108769190610b2f565b909155506108e09050565b6001600160a01b038316600090815260208190526040902054818110156108c15783818360405163391434e360e21b81526004016103cc93929190610b55565b6001600160a01b03841660009081526020819052604090209082900390555b6001600160a01b0382166108fc5760028054829003905561091b565b6001600160a01b03821660009081526020819052604090208054820190555b816001600160a01b0316836001600160a01b03167fddf252ad1be2c89b69c2b068fc378daa952ba7f163c4a11628f55a4df523b3ef8360405161096091815260200190565b60405180910390a3505050565b602081526000825180602084015260005b8181101561099b576020818601810151604086840101520161097e565b506000604082850101526040601f19601f83011684010191505092915050565b80356001600160a01b03811681146109d257600080fd5b919050565b600080604083850312156109ea57600080fd5b6109f3836109bb565b946020939093013593505050565b600080600060608486031215610a1657600080fd5b610a1f846109bb565b9250610a2d602085016109bb565b929592945050506040919091013590565b600060208284031215610a5057600080fd5b5035919050565b600060208284031215610a6957600080fd5b610562826109bb565b6001600160a01b0391909116815260200190565b60008060408385031215610a9957600080fd5b610aa2836109bb565b9150610ab0602084016109bb565b90509250929050565b600181811c90821680610acd57607f821691505b602082108103610aed57634e487b7160e01b600052602260045260246000fd5b50919050565b6020808252600c908201526b46617563657420656d70747960a01b604082015260600190565b634e487b7160e01b600052601160045260246000fd5b8082018082111561035c5761035c610b19565b8181038181111561035c5761035c610b19565b6001600160a01b03939093168352602083019190915260408201526060019056fea2646970667358221220983bda1d176b63ef246a1a0014008aabeb8696d6a9a5a93f6ac432f0ff3995fe64736f6c634300081a0033",
  "linkReferences": {},
  "deployedLinkReferences": {}
}