{
  "_format": "hh-sol-artifact-1",
  "contractName": "TestDXN",
  "sourceName": "contracts/TestDXN.sol",
  "abi": [
    {
      "inputs": [],
      "stateMutability": "nonpayable",
      "type": "constructor"
    },
    {
      "inputs": [
        {
          "internalType": "address",
          "name": "spender",
          "type": "address"
        },
        {
          "internalType": "uint256",
          "name": "allowance",
          "type": "uint256"
        },
        {
          "internalType": "uint256",
          "name": "needed",
          "type": "uint256"
        }
      ],
      "name": "ERC20InsufficientAllowance",
      "type": "error"
    },
    {
      "inputs": [
        {
          "internalType": "address",
          "name": "sender",
          "type": "address"
        },
        {
          "internalType": "uint256",
          "name": "balance",
          "type": "uint256"
        },
        {
          "internalType": "uint256",
          "name": "needed",
          "type": "uint256"
        }
      ],
      "name": "ERC20InsufficientBalance",
      "type": "error"
    },
    {
      "inputs": [
        {
          "internalType": "address",
          "name": "approver",
          "type": "address"
        }
      ],
      "name": "ERC20InvalidApprover",
      "type": "error"
    },
    {
      "inputs": [
        {
          "internalType": "address",
          "name": "receiver",
          "type": "address"
        }
      ],
      "name": "ERC20InvalidReceiver",
      "type": "error"
    },
    {
      "inputs": [
        {
          "internalType": "address",
          "name": "sender",
          "type": "address"
        }
      ],
      "name": "ERC20InvalidSender",
      "type": "error"
    },
    {
      "inputs": [
        {
          "internalType": "address",
          "name": "spender",
          "type": "address"
        }
      ],
      "name": "ERC20InvalidSpender",
      "type": "error"
    },
    {
      "inputs": [
        {
          "internalType": "address",
          "name": "owner",
          "type": "address"
        }
      ],
      "name": "OwnableInvalidOwner",
      "type": "error"
    },
    {
      "inputs": [
        {
          "internalType": "address",
          "name": "account",
          "type": "address"
        }
      ],
      "name": "OwnableUnauthorizedAccount",
      "type": "error"
    },
    {
      "anonymous": false,
      "inputs": [
        {
          "indexed": true,
          "internalType": "address",
          "name": "owner",
          "type": "address"
        },
        {
          "indexed": true,
          "internalType": "address",
          "name": "spender",
          "type": "address"
        },
        {
          "indexed": false,
          "internalType": "uint256",
          "name": "value",
          "type": "uint256"
        }
      ],
      "name": "Approval",
      "type": "event"
    },
    {
      "anonymous": false,
      "inputs": [
        {
          "indexed": true,
          "internalType": "address",
          "name": "user",
          "type": "address"
        },
        {
          "indexed": false,
          "internalType": "uint256",
          "name": "amount",
          "type": "uint256"
        }
      ],
      "name": "Claimed",
      "type": "event"
    },
    {
      "anonymous": false,
      "inputs": [
        {
          "indexed": true,
          "internalType": "address",
          "name": "previousOwner",
          "type": "address"
        },
        {
          "indexed": true,
          "internalType": "address",
          "name": "newOwner",
          "type": "address"
        }
      ],
      "name": "OwnershipTransferred",
      "type": "event"
    },
    {
      "anonymous": false,
      "inputs": [
        {
          "indexed": true,
          "internalType": "address",
          "name": "from",
          "type": "address"
        },
        {
          "indexed": true,
          "internalType": "address",
          "name": "to",
          "type": "address"
        },
        {
          "indexed": false,
          "internalType": "uint256",
          "name": "value",
          "type": "uint256"
        }
      ],
      "name": "Transfer",
      "type": "event"
    },
    {
      "inputs": [],
      "name": "DRIP_AMOUNT",
      "outputs": [
        {
          "internalType": "uint256",
          "name": "",
          "type": "uint256"
        }
      ],
      "stateMutability": "view",
      "type": "function"
    },
    {
      "inputs": [],
      "name": "DRIP_INTERVAL",
      "outputs": [
        {
          "internalType": "uint256",
          "name": "",
          "type": "uint256"
        }
      ],
      "stateMutability": "view",
      "type": "function"
    },
    {
      "inputs": [],
      "name": "TOTAL_SUPPLY",
      "outputs": [
        {
          "internalType": "uint256",
          "name": "",
          "type": "uint256"
        }
      ],
      "stateMutability": "view",
      "type": "function"
    },
    {
      "inputs": [
        {
          "internalType": "address",
          "name": "owner",
          "type": "address"
        },
        {
          "internalType": "address",
          "name": "spender",
          "type": "address"
        }
      ],
      "name": "allowance",
      "outputs": [
        {
          "internalType": "uint256",
          "name": "",
          "type": "uint256"
        }
      ],
      "stateMutability": "view",
      "type": "function"
    },
    {
      "inputs": [
        {
          "internalType": "address",
          "name": "spender",
          "type": "address"
        },
        {
          "internalType": "uint256",
          "name": "value",
          "type": "uint256"
        }
      ],
      "name": "approve",
      "outputs": [
        {
          "internalType": "bool",
          "name": "",
          "type": "bool"
        }
      ],
      "stateMutability": "nonpayable",
      "type": "function"
    },
    {
      "inputs": [
        {
          "internalType": "address",
          "name": "account",
          "type": "address"
        }
      ],
      "name": "balanceOf",
      "outputs": [
        {
          "internalType": "uint256",
          "name": "",
          "type": "uint256"
        }
      ],
      "stateMutability": "view",
      "type": "function"
    },
    {
      "inputs": [],
      "name": "claim",
      "outputs": [],
      "stateMutability": "nonpayable",
      "type": "function"
    },
    {
      "inputs": [],
      "name": "decimals",
      "outputs": [
        {
          "internalType": "uint8",
          "name": "",
          "type": "uint8"
        }
      ],
      "stateMutability": "view",
      "type": "function"
    },
    {
      "inputs": [
        {
          "internalType": "address",
          "name": "",
          "type": "address"
        }
      ],
      "name": "lastClaim",
      "outputs": [
        {
          "internalType": "uint256",
          "name": "",
          "type": "uint256"
        }
      ],
      "stateMutability": "view",
      "type": "function"
    },
    {
      "inputs": [],
      "name": "name",
      "outputs": [
        {
          "internalType": "string",
          "name": "",
          "type": "string"
        }
      ],
      "stateMutability": "view",
      "type": "function"
    },
    {
      "inputs": [],
      "name": "owner",
      "outputs": [
        {
          "internalType": "address",
          "name": "",
          "type": "address"
        }
      ],
      "stateMutability": "view",
      "type": "function"
    },
    {
      "inputs": [
        {
          "internalType": "uint256",
          "name": "amount",
          "type": "uint256"
        }
      ],
      "name": "refill",
      "outputs": [],
      "stateMutability": "nonpayable",
      "type": "function"
    },
    {
      "inputs": [],
      "name": "renounceOwnership",
      "outputs": [],
      "stateMutability": "nonpayable",
      "type": "function"
    },
    {
      "inputs": [],
      "name": "symbol",
      "outputs": [
        {
          "internalType": "string",
          "name": "",
          "type": "string"
        }
      ],
      "stateMutability": "view",
      "type": "function"
    },
    {
      "inputs": [
        {
          "internalType": "address",
          "name": "user",
          "type": "address"
        }
      ],
      "name": "timeUntilNextClaim",
      "outputs": [
        {
          "internalType": "uint256",
          "name": "",
          "type": "uint256"
        }
      ],
      "stateMutability": "view",
      "type": "function"
    },
    {
      "inputs": [],
      "name": "totalSupply",
      "outputs": [
        {
          "internalType": "uint256",
          "name": "",
          "type": "uint256"
        }
      ],
      "stateMutability": "view",
      "type": "function"
    },
    {
      "inputs": [
        {
          "internalType": "address",
          "name": "to",
          "type": "address"
        },
        {
          "internalType": "uint256",
          "name": "value",
          "type": "uint256"
        }
      ],
      "name": "transfer",
      "outputs": [
        {
          "internalType": "bool",
          "name": "",
          "type": "bool"
        }
      ],
      "stateMutability": "nonpayable",
      "type": "function"
    },
    {
      "inputs": [
        {
          "internalType": "address",
          "name": "from",
          "type": "address"
        },
        {
          "internalType": "address",
          "name": "to",
          "type": "address"
        },
        {
          "internalType": "uint256",
          "name": "value",
          "type": "uint256"
        }
      ],
      "name": "transferFrom",
      "outputs": [
        {
          "internalType": "bool",
          "name": "",
          "type": "bool"
        }
      ],
      "stateMutability": "nonpayable",
      "type": "function"
    },
    {
      "inputs": [
        {
          "internalType": "address",
          "name": "newOwner",
          "type": "address"
        }
      ],
      "name": "transferOwnership",
      "outputs": [],
      "stateMutability": "nonpayable",
      "type": "function"
    },
    {
      "inputs": [
        {
          "internalType": "uint256",
          "name": "amount",
          "type": "uint256"
        }
      ],
      "name": "withdraw",
      "outputs": [],
      "stateMutability": "nonpayable",
      "type": "function"
    }
  ],
  "bytecode": "0x608060405234801561001057600080fd5b5033604051806040016040528060088152602001672a32b9ba10222c2760c11b815250604051806040016040528060048152602001633a222c2760e11b815250816003908161005f919061031b565b50600461006c828261031b565b5050506001600160a01b0381166100a2576000604051631e4fbdf760e01b815260040161009991906103d9565b60405180910390fd5b6100ab816100c6565b506100c1306a0422ca8b0a00a425000000610118565b610414565b600580546001600160a01b038381166001600160a01b0319831681179093556040519116919082907f8be0079c531659141344cd1fd0a4f28419497f9722a3daafe3b4186f6b6457e090600090a35050565b6001600160a01b03821661014257600060405163ec442f0560e01b815260040161009991906103d9565b61014e60008383610152565b5050565b6001600160a01b03831661017d57806002600082825461017291906103ed565b909155506101ef9050565b6001600160a01b038316600090815260208190526040902054818110156101d05760405163391434e360e21b81526001600160a01b03851660048201526024810182905260448101839052606401610099565b6001600160a01b03841660009081526020819052604090209082900390555b6001600160a01b03821661020b5760028054829003905561022a565b6001600160a01b03821660009081526020819052604090208054820190555b816001600160a01b0316836001600160a01b03167fddf252ad1be2c89b69c2b068fc378daa952ba7f163c4a11628f55a4df523b3ef8360405161026f91815260200190565b60405180910390a3505050565b634e487b7160e01b600052604160045260246000fd5b600181811c908216806102a657607f821691505b6020821081036102c657634e487b7160e01b600052602260045260246000fd5b50919050565b601f82111561031657806000526020600020601f840160051c810160208510156102f35750805b601f840160051c820191505b8181101561031357600081556001016102ff565b50505b505050565b81516001600160401b038111156103345761033461027c565b610348816103428454610292565b846102cc565b6020601f82116001811461037c57600083156103645750848201515b600019600385901b1c1916600184901b178455610313565b600084815260208120601f198516915b828110156103ac578785015182556020948501946001909201910161038c565b50848210156103ca5786840151600019600387901b60f8161c191681555b50505050600190811b01905550565b6001600160a01b0391909116815260200190565b8082018082111561040e57634e487b7160e01b600052601160045260246000fd5b92915050565b610b2b806104236000396000f3fe608060405234801561001057600080fd5b50600436106100fc5760003560e01c806306fdde0314610101578063095ea7b31461011f57806318160ddd1461014257806323b872dd146101545780632e1a7d4d14610167578063313ce5671461017c5780634e71d92d1461018b5780635c16e15e146101935780635d8bc6b7146101b357806370a08231146101bd578063715018a6146101d05780638da5cb5b146101d8578063902d55a5146101ed57806392d82dbe146101ff57806395d89b4114610212578063a9059cbb1461021a578063ca9d07ba1461022d578063dd62ed3e14610240578063e98890a714610253578063f2fde38b14610263575b600080fd5b610109610276565b6040516101169190610912565b60405180910390f35b61013261012d36600461097c565b610308565b6040519015158152602001610116565b6002545b604051908152602001610116565b6101326101623660046109a6565b610322565b61017a6101753660046109e3565b610346565b005b60405160128152602001610116565b61017a61035c565b6101466101a13660046109fc565b60066020526000908152604090205481565b6101466201518081565b6101466101cb3660046109fc565b610484565b61017a61049f565b6101e06104b3565b6040516101169190610a17565b6101466a0422ca8b0a00a42500000081565b61014661020d3660046109fc565b6104c2565b61010961050e565b61013261022836600461097c565b61051d565b61017a61023b3660046109e3565b61052b565b61014661024e366004610a2b565b61053d565b610146683635c9adc5dea0000081565b61017a6102713660046109fc565b610568565b60606003805461028590610a5e565b80601f01602080910402602001604051908101604052809291908181526020018280546102b190610a5e565b80156102fe5780601f106102d3576101008083540402835291602001916102fe565b820191906000526020600020905b8154815290600101906020018083116102e157829003601f168201915b5050505050905090565b6000336103168185856105a3565b60019150505b92915050565b6000336103308582856105b5565b61033b858585610609565b506001949350505050565b61034e610668565b610359303383610609565b50565b3360009081526006602052604090205461037a906201518090610aae565b4210156103cd5760405162461bcd60e51b815260206004820152601c60248201527b5761697420323420686f757273206265747765656e20636c61696d7360201b60448201526064015b60405180910390fd5b683635c9adc5dea000006103e030610484565b101561041d5760405162461bcd60e51b815260206004820152600c60248201526b46617563657420656d70747960a01b60448201526064016103c4565b336000818152600660205260409020429055610444903090683635c9adc5dea00000610609565b604051683635c9adc5dea00000815233907fd8138f8a3f377c5259ca548e70e4c2de94f129f5a11036a15b69513cba2b426a9060200160405180910390a2565b6001600160a01b031660009081526020819052604090205490565b6104a7610668565b6104b1600061069a565b565b6005546001600160a01b031690565b6001600160a01b03811660009081526006602052604081205481906104eb906201518090610aae565b90508042106104fd5750600092915050565b6105074282610ac1565b9392505050565b60606004805461028590610a5e565b600033610316818585610609565b610533610668565b61035930826106ec565b6001600160a01b03918216600090815260016020908152604080832093909416825291909152205490565b610570610668565b6001600160a01b03811661059a576000604051631e4fbdf760e01b81526004016103c49190610a17565b6103598161069a565b6105b08383836001610726565b505050565b60006105c1848461053d565b905060001981101561060357818110156105f457828183604051637dc7a0d960e11b81526004016103c493929190610ad4565b61060384848484036000610726565b50505050565b6001600160a01b038316610633576000604051634b637e8f60e11b81526004016103c49190610a17565b6001600160a01b03821661065d57600060405163ec442f0560e01b81526004016103c49190610a17565b6105b08383836107fb565b336106716104b3565b6001600160a01b0316146104b1573360405163118cdaa760e01b81526004016103c49190610a17565b600580546001600160a01b038381166001600160a01b0319831681179093556040519116919082907f8be0079c531659141344cd1fd0a4f28419497f9722a3daafe3b4186f6b6457e090600090a35050565b6001600160a01b03821661071657600060405163ec442f0560e01b81526004016103c49190610a17565b610722600083836107fb565b5050565b6001600160a01b03841661075057600060405163e602df0560e01b81526004016103c49190610a17565b6001600160a01b03831661077a576000604051634a1406b160e11b81526004016103c49190610a17565b6001600160a01b038085166000908152600160209081526040808320938716835292905220829055801561060357826001600160a01b0316846001600160a01b03167f8c5be1e5ebec7d5bd14f71427d1e84f3dd0314c0f7b2291e5b200ac8c7c3b925846040516107ed91815260200190565b60405180910390a350505050565b6001600160a01b03831661082657806002600082825461081b9190610aae565b909155506108859050565b6001600160a01b038316600090815260208190526040902054818110156108665783818360405163391434e360e21b81526004016103c493929190610ad4565b6001600160a01b03841660009081526020819052604090209082900390555b6001600160a01b0382166108a1576002805482900390556108c0565b6001600160a01b03821660009081526020819052604090208054820190555b816001600160a01b0316836001600160a01b03167fddf252ad1be2c89b69c2b068fc378daa952ba7f163c4a11628f55a4df523b3ef8360405161090591815260200190565b60405180910390a3505050565b602081526000825180602084015260005b818110156109405760208186018101516040868401015201610923565b506000604082850101526040601f19601f83011684010191505092915050565b80356001600160a01b038116811461097757600080fd5b919050565b6000806040838503121561098f57600080fd5b61099883610960565b946020939093013593505050565b6000806000606084860312156109bb57600080fd5b6109c484610960565b92506109d260208501610960565b929592945050506040919091013590565b6000602082840312156109f557600080fd5b5035919050565b600060208284031215610a0e57600080fd5b61050782610960565b6001600160a01b0391909116815260200190565b60008060408385031215610a3e57600080fd5b610a4783610960565b9150610a5560208401610960565b90509250929050565b600181811c90821680610a7257607f821691505b602082108103610a9257634e487b7160e01b600052602260045260246000fd5b50919050565b634e487b7160e01b600052601160045260246000fd5b8082018082111561031c5761031c610a98565b8181038181111561031c5761031c610a98565b6001600160a01b03939093168352602083019190915260408201526060019056fea2646970667358221220a8a2935b7561fbaf8a7475b772a076903c0c4f0e3443e83e95639ba67c07f6ad64736f6c634300081a0033",
  "linkReferences": {},
  "deployedLinkReferences": {}
}